{
  "_format": "hh-sol-artifact-1",
  "contractName": "FriendsweeperNFT",
  "sourceName": "contracts/FriendsweeperNFT.sol",
  "abi": [
    {
      "inputs": [],
      "stateMutability": "nonpayable",
      "type": "constructor"
    },
    {
      "inputs": [
        {
          "internalType": "address",
          "name": "sender",
          "type": "address"
        },
        {
          "internalType": "uint256",
          "name": "balance",
          "type": "uint256"
        },
        {
          "internalType": "uint256",
          "name": "needed",
          "type": "uint256"
        },
        {
          "internalType": "uint256",
          "name": "tokenId",
          "type": "uint256"
        }
      ],
      "name": "ERC1155InsufficientBalance",
      "type": "error"
    },
    {
      "inputs": [
        {
          "internalType": "address",
          "name": "approver",
          "type": "address"
        }
      ],
      "name": "ERC1155InvalidApprover",
      "type": "error"
    },
    {
      "inputs": [
        {
          "internalType": "uint256",
          "name": "idsLength",
          "type": "uint256"
        },
        {
          "internalType": "uint256",
          "name": "valuesLength",
          "type": "uint256"
        }
      ],
      "name": "ERC1155InvalidArrayLength",
      "type": "error"
    },
    {
      "inputs": [
        {
          "internalType": "address",
          "name": "operator",
          "type": "address"
        }
      ],
      "name": "ERC1155InvalidOperator",
      "type": "error"
    },
    {
      "inputs": [
        {
          "internalType": "address",
          "name": "receiver",
          "type": "address"
        }
      ],
      "name": "ERC1155InvalidReceiver",
      "type": "error"
    },
    {
      "inputs": [
        {
          "internalType": "address",
          "name": "sender",
          "type": "address"
        }
      ],
      "name": "ERC1155InvalidSender",
      "type": "error"
    },
    {
      "inputs": [
        {
          "internalType": "address",
          "name": "operator",
          "type": "address"
        },
        {
          "internalType": "address",
          "name": "owner",
          "type": "address"
        }
      ],
      "name": "ERC1155MissingApprovalForAll",
      "type": "error"
    },
    {
      "inputs": [
        {
          "internalType": "uint256",
          "name": "numerator",
          "type": "uint256"
        },
        {
          "internalType": "uint256",
          "name": "denominator",
          "type": "uint256"
        }
      ],
      "name": "ERC2981InvalidDefaultRoyalty",
      "type": "error"
    },
    {
      "inputs": [
        {
          "internalType": "address",
          "name": "receiver",
          "type": "address"
        }
      ],
      "name": "ERC2981InvalidDefaultRoyaltyReceiver",
      "type": "error"
    },
    {
      "inputs": [
        {
          "internalType": "uint256",
          "name": "tokenId",
          "type": "uint256"
        },
        {
          "internalType": "uint256",
          "name": "numerator",
          "type": "uint256"
        },
        {
          "internalType": "uint256",
          "name": "denominator",
          "type": "uint256"
        }
      ],
      "name": "ERC2981InvalidTokenRoyalty",
      "type": "error"
    },
    {
      "inputs": [
        {
          "internalType": "uint256",
          "name": "tokenId",
          "type": "uint256"
        },
        {
          "internalType": "address",
          "name": "receiver",
          "type": "address"
        }
      ],
      "name": "ERC2981InvalidTokenRoyaltyReceiver",
      "type": "error"
    },
    {
      "inputs": [
        {
          "internalType": "address",
          "name": "owner",
          "type": "address"
        }
      ],
      "name": "OwnableInvalidOwner",
      "type": "error"
    },
    {
      "inputs": [
        {
          "internalType": "address",
          "name": "account",
          "type": "address"
        }
      ],
      "name": "OwnableUnauthorizedAccount",
      "type": "error"
    },
    {
      "anonymous": false,
      "inputs": [
        {
          "indexed": true,
          "internalType": "address",
          "name": "account",
          "type": "address"
        },
        {
          "indexed": true,
          "internalType": "address",
          "name": "operator",
          "type": "address"
        },
        {
          "indexed": false,
          "internalType": "bool",
          "name": "approved",
          "type": "bool"
        }
      ],
      "name": "ApprovalForAll",
      "type": "event"
    },
    {
      "anonymous": false,
      "inputs": [
        {
          "indexed": true,
          "internalType": "address",
          "name": "seller",
          "type": "address"
        },
        {
          "indexed": true,
          "internalType": "uint256",
          "name": "tokenId",
          "type": "uint256"
        }
      ],
      "name": "NFTDelisted",
      "type": "event"
    },
    {
      "anonymous": false,
      "inputs": [
        {
          "indexed": true,
          "internalType": "address",
          "name": "seller",
          "type": "address"
        },
        {
          "indexed": true,
          "internalType": "uint256",
          "name": "tokenId",
          "type": "uint256"
        },
        {
          "indexed": false,
          "internalType": "uint256",
          "name": "price",
          "type": "uint256"
        }
      ],
      "name": "NFTListed",
      "type": "event"
    },
    {
      "anonymous": false,
      "inputs": [
        {
          "indexed": true,
          "internalType": "address",
          "name": "to",
          "type": "address"
        },
        {
          "indexed": true,
          "internalType": "uint256",
          "name": "tokenId",
          "type": "uint256"
        },
        {
          "indexed": false,
          "internalType": "string",
          "name": "tokenURI",
          "type": "string"
        },
        {
          "indexed": false,
          "internalType": "uint256",
          "name": "amount",
          "type": "uint256"
        }
      ],
      "name": "NFTMinted",
      "type": "event"
    },
    {
      "anonymous": false,
      "inputs": [
        {
          "indexed": true,
          "internalType": "address",
          "name": "seller",
          "type": "address"
        },
        {
          "indexed": true,
          "internalType": "address",
          "name": "buyer",
          "type": "address"
        },
        {
          "indexed": true,
          "internalType": "uint256",
          "name": "tokenId",
          "type": "uint256"
        },
        {
          "indexed": false,
          "internalType": "uint256",
          "name": "price",
          "type": "uint256"
        }
      ],
      "name": "NFTSold",
      "type": "event"
    },
    {
      "anonymous": false,
      "inputs": [
        {
          "indexed": true,
          "internalType": "address",
          "name": "previousOwner",
          "type": "address"
        },
        {
          "indexed": true,
          "internalType": "address",
          "name": "newOwner",
          "type": "address"
        }
      ],
      "name": "OwnershipTransferred",
      "type": "event"
    },
    {
      "anonymous": false,
      "inputs": [
        {
          "indexed": true,
          "internalType": "address",
          "name": "operator",
          "type": "address"
        },
        {
          "indexed": true,
          "internalType": "address",
          "name": "from",
          "type": "address"
        },
        {
          "indexed": true,
          "internalType": "address",
          "name": "to",
          "type": "address"
        },
        {
          "indexed": false,
          "internalType": "uint256[]",
          "name": "ids",
          "type": "uint256[]"
        },
        {
          "indexed": false,
          "internalType": "uint256[]",
          "name": "values",
          "type": "uint256[]"
        }
      ],
      "name": "TransferBatch",
      "type": "event"
    },
    {
      "anonymous": false,
      "inputs": [
        {
          "indexed": true,
          "internalType": "address",
          "name": "operator",
          "type": "address"
        },
        {
          "indexed": true,
          "internalType": "address",
          "name": "from",
          "type": "address"
        },
        {
          "indexed": true,
          "internalType": "address",
          "name": "to",
          "type": "address"
        },
        {
          "indexed": false,
          "internalType": "uint256",
          "name": "id",
          "type": "uint256"
        },
        {
          "indexed": false,
          "internalType": "uint256",
          "name": "value",
          "type": "uint256"
        }
      ],
      "name": "TransferSingle",
      "type": "event"
    },
    {
      "anonymous": false,
      "inputs": [
        {
          "indexed": false,
          "internalType": "string",
          "name": "value",
          "type": "string"
        },
        {
          "indexed": true,
          "internalType": "uint256",
          "name": "id",
          "type": "uint256"
        }
      ],
      "name": "URI",
      "type": "event"
    },
    {
      "inputs": [],
      "name": "ROYALTY_PERCENTAGE",
      "outputs": [
        {
          "internalType": "uint96",
          "name": "",
          "type": "uint96"
        }
      ],
      "stateMutability": "view",
      "type": "function"
    },
    {
      "inputs": [],
      "name": "ROYALTY_RECIPIENT",
      "outputs": [
        {
          "internalType": "address",
          "name": "",
          "type": "address"
        }
      ],
      "stateMutability": "view",
      "type": "function"
    },
    {
      "inputs": [
        {
          "internalType": "address",
          "name": "account",
          "type": "address"
        },
        {
          "internalType": "uint256",
          "name": "id",
          "type": "uint256"
        }
      ],
      "name": "balanceOf",
      "outputs": [
        {
          "internalType": "uint256",
          "name": "",
          "type": "uint256"
        }
      ],
      "stateMutability": "view",
      "type": "function"
    },
    {
      "inputs": [
        {
          "internalType": "address[]",
          "name": "accounts",
          "type": "address[]"
        },
        {
          "internalType": "uint256[]",
          "name": "ids",
          "type": "uint256[]"
        }
      ],
      "name": "balanceOfBatch",
      "outputs": [
        {
          "internalType": "uint256[]",
          "name": "",
          "type": "uint256[]"
        }
      ],
      "stateMutability": "view",
      "type": "function"
    },
    {
      "inputs": [
        {
          "internalType": "address",
          "name": "to",
          "type": "address"
        },
        {
          "internalType": "string[]",
          "name": "metadataURIs",
          "type": "string[]"
        },
        {
          "internalType": "uint256[]",
          "name": "amounts",
          "type": "uint256[]"
        }
      ],
      "name": "batchMint",
      "outputs": [
        {
          "internalType": "uint256[]",
          "name": "",
          "type": "uint256[]"
        }
      ],
      "stateMutability": "nonpayable",
      "type": "function"
    },
    {
      "inputs": [
        {
          "internalType": "uint256",
          "name": "tokenId",
          "type": "uint256"
        }
      ],
      "name": "buyNFT",
      "outputs": [],
      "stateMutability": "payable",
      "type": "function"
    },
    {
      "inputs": [
        {
          "internalType": "uint256",
          "name": "tokenId",
          "type": "uint256"
        }
      ],
      "name": "delistNFT",
      "outputs": [],
      "stateMutability": "nonpayable",
      "type": "function"
    },
    {
      "inputs": [],
      "name": "emergencyPause",
      "outputs": [],
      "stateMutability": "nonpayable",
      "type": "function"
    },
    {
      "inputs": [
        {
          "internalType": "uint256",
          "name": "tokenId",
          "type": "uint256"
        }
      ],
      "name": "getListing",
      "outputs": [
        {
          "internalType": "address",
          "name": "seller",
          "type": "address"
        },
        {
          "internalType": "uint256",
          "name": "price",
          "type": "uint256"
        },
        {
          "internalType": "bool",
          "name": "isListed",
          "type": "bool"
        },
        {
          "internalType": "uint256",
          "name": "listingTime",
          "type": "uint256"
        }
      ],
      "stateMutability": "view",
      "type": "function"
    },
    {
      "inputs": [
        {
          "internalType": "address",
          "name": "account",
          "type": "address"
        },
        {
          "internalType": "address",
          "name": "operator",
          "type": "address"
        }
      ],
      "name": "isApprovedForAll",
      "outputs": [
        {
          "internalType": "bool",
          "name": "",
          "type": "bool"
        }
      ],
      "stateMutability": "view",
      "type": "function"
    },
    {
      "inputs": [
        {
          "internalType": "uint256",
          "name": "tokenId",
          "type": "uint256"
        },
        {
          "internalType": "uint256",
          "name": "price",
          "type": "uint256"
        }
      ],
      "name": "listNFT",
      "outputs": [],
      "stateMutability": "nonpayable",
      "type": "function"
    },
    {
      "inputs": [
        {
          "internalType": "address",
          "name": "to",
          "type": "address"
        },
        {
          "internalType": "string",
          "name": "metadataURI",
          "type": "string"
        },
        {
          "internalType": "uint256",
          "name": "amount",
          "type": "uint256"
        }
      ],
      "name": "mint",
      "outputs": [
        {
          "internalType": "uint256",
          "name": "",
          "type": "uint256"
        }
      ],
      "stateMutability": "nonpayable",
      "type": "function"
    },
    {
      "inputs": [],
      "name": "nextTokenId",
      "outputs": [
        {
          "internalType": "uint256",
          "name": "",
          "type": "uint256"
        }
      ],
      "stateMutability": "view",
      "type": "function"
    },
    {
      "inputs": [],
      "name": "owner",
      "outputs": [
        {
          "internalType": "address",
          "name": "",
          "type": "address"
        }
      ],
      "stateMutability": "view",
      "type": "function"
    },
    {
      "inputs": [],
      "name": "renounceOwnership",
      "outputs": [],
      "stateMutability": "nonpayable",
      "type": "function"
    },
    {
      "inputs": [
        {
          "internalType": "uint256",
          "name": "tokenId",
          "type": "uint256"
        },
        {
          "internalType": "uint256",
          "name": "salePrice",
          "type": "uint256"
        }
      ],
      "name": "royaltyInfo",
      "outputs": [
        {
          "internalType": "address",
          "name": "receiver",
          "type": "address"
        },
        {
          "internalType": "uint256",
          "name": "amount",
          "type": "uint256"
        }
      ],
      "stateMutability": "view",
      "type": "function"
    },
    {
      "inputs": [
        {
          "internalType": "address",
          "name": "from",
          "type": "address"
        },
        {
          "internalType": "address",
          "name": "to",
          "type": "address"
        },
        {
          "internalType": "uint256[]",
          "name": "ids",
          "type": "uint256[]"
        },
        {
          "internalType": "uint256[]",
          "name": "values",
          "type": "uint256[]"
        },
        {
          "internalType": "bytes",
          "name": "data",
          "type": "bytes"
        }
      ],
      "name": "safeBatchTransferFrom",
      "outputs": [],
      "stateMutability": "nonpayable",
      "type": "function"
    },
    {
      "inputs": [
        {
          "internalType": "address",
          "name": "from",
          "type": "address"
        },
        {
          "internalType": "address",
          "name": "to",
          "type": "address"
        },
        {
          "internalType": "uint256",
          "name": "id",
          "type": "uint256"
        },
        {
          "internalType": "uint256",
          "name": "value",
          "type": "uint256"
        },
        {
          "internalType": "bytes",
          "name": "data",
          "type": "bytes"
        }
      ],
      "name": "safeTransferFrom",
      "outputs": [],
      "stateMutability": "nonpayable",
      "type": "function"
    },
    {
      "inputs": [
        {
          "internalType": "address",
          "name": "operator",
          "type": "address"
        },
        {
          "internalType": "bool",
          "name": "approved",
          "type": "bool"
        }
      ],
      "name": "setApprovalForAll",
      "outputs": [],
      "stateMutability": "nonpayable",
      "type": "function"
    },
    {
      "inputs": [
        {
          "internalType": "string",
          "name": "baseURI",
          "type": "string"
        }
      ],
      "name": "setBaseURI",
      "outputs": [],
      "stateMutability": "nonpayable",
      "type": "function"
    },
    {
      "inputs": [
        {
          "internalType": "bytes4",
          "name": "interfaceId",
          "type": "bytes4"
        }
      ],
      "name": "supportsInterface",
      "outputs": [
        {
          "internalType": "bool",
          "name": "",
          "type": "bool"
        }
      ],
      "stateMutability": "view",
      "type": "function"
    },
    {
      "inputs": [],
      "name": "totalTokenTypes",
      "outputs": [
        {
          "internalType": "uint256",
          "name": "",
          "type": "uint256"
        }
      ],
      "stateMutability": "view",
      "type": "function"
    },
    {
      "inputs": [
        {
          "internalType": "address",
          "name": "newOwner",
          "type": "address"
        }
      ],
      "name": "transferOwnership",
      "outputs": [],
      "stateMutability": "nonpayable",
      "type": "function"
    },
    {
      "inputs": [
        {
          "internalType": "uint256",
          "name": "tokenId",
          "type": "uint256"
        }
      ],
      "name": "uri",
      "outputs": [
        {
          "internalType": "string",
          "name": "",
          "type": "string"
        }
      ],
      "stateMutability": "view",
      "type": "function"
    },
    {
      "inputs": [],
      "name": "withdraw",
      "outputs": [],
      "stateMutability": "nonpayable",
      "type": "function"
    }
  ],
  "bytecode": "0x60806040523480156200001157600080fd5b5060408051602081019091526000815233906200002e81620000b2565b506001600160a01b0381166200005f57604051631e4fbdf760e01b8152600060048201526024015b60405180910390fd5b6200006a81620000c4565b5060408051602081019091526000815260079062000089908262000262565b50620000ac73f51fe86498b83538e902e160f2d80c34c7d6b8166101f462000116565b6200032e565b6002620000c0828262000262565b5050565b600580546001600160a01b038381166001600160a01b0319831681179093556040519116919082907f8be0079c531659141344cd1fd0a4f28419497f9722a3daafe3b4186f6b6457e090600090a35050565b6127106001600160601b0382168110156200015757604051636f483d0960e01b81526001600160601b03831660048201526024810182905260440162000056565b6001600160a01b0383166200018357604051635b6cc80560e11b81526000600482015260240162000056565b50604080518082019091526001600160a01b039092168083526001600160601b039091166020909201829052600160a01b90910217600355565b634e487b7160e01b600052604160045260246000fd5b600181811c90821680620001e857607f821691505b6020821081036200020957634e487b7160e01b600052602260045260246000fd5b50919050565b601f8211156200025d57600081815260208120601f850160051c81016020861015620002385750805b601f850160051c820191505b81811015620002595782815560010162000244565b5050505b505050565b81516001600160401b038111156200027e576200027e620001bd565b62000296816200028f8454620001d3565b846200020f565b602080601f831160018114620002ce5760008415620002b55750858301515b600019600386901b1c1916600185901b17855562000259565b600085815260208120601f198616915b82811015620002ff57888601518255948401946001909101908401620002de565b50858210156200031e5787850151600019600388901b60f8161c191681555b5050505050600190811b01905550565b612973806200033e6000396000f3fe6080604052600436106101655760003560e01c806355f804b3116100d157806394383f141161008a578063cb917b9c11610064578063cb917b9c146104d3578063e985e9c5146104f3578063f242432a14610513578063f2fde38b1461053357600080fd5b806394383f1414610473578063a22cb46514610493578063ba7aef43146104b357600080fd5b806355f804b3146103d6578063650bcee0146103f6578063715018a61461041657806375794a3c1461042b5780638da5cb5b146104405780638dfde3391461045e57600080fd5b80633ccfd60b116101235780633ccfd60b146102fe578063463b08db146103135780634e1273f41461034157806350fe03f61461036e57806351858e27146103ae57806351ed8288146103c357600080fd5b8062fdd58e1461016a57806301ffc9a71461019d5780630e89341c146101cd578063107a274a146101fa5780632a55205a1461029d5780632eb2c2d6146102dc575b600080fd5b34801561017657600080fd5b5061018a610185366004611fbb565b610553565b6040519081526020015b60405180910390f35b3480156101a957600080fd5b506101bd6101b8366004611ffb565b61057b565b6040519015158152602001610194565b3480156101d957600080fd5b506101ed6101e836600461201f565b610586565b6040516101949190612088565b34801561020657600080fd5b5061026d61021536600461201f565b600090815260096020908152604091829020825160808101845281546001600160a01b03168082526001830154938201849052600283015460ff16151594820185905260039092015460609091018190529093919291565b604080516001600160a01b0390951685526020850193909352901515918301919091526060820152608001610194565b3480156102a957600080fd5b506102bd6102b836600461209b565b610710565b604080516001600160a01b039093168352602083019190915201610194565b3480156102e857600080fd5b506102fc6102f7366004612200565b610795565b005b34801561030a57600080fd5b506102fc610801565b34801561031f57600080fd5b506103296101f481565b6040516001600160601b039091168152602001610194565b34801561034d57600080fd5b5061036161035c3660046122a9565b6108f8565b60405161019491906123a3565b34801561037a57600080fd5b5061039673f51fe86498b83538e902e160f2d80c34c7d6b81681565b6040516001600160a01b039091168152602001610194565b3480156103ba57600080fd5b506102fc6109cc565b6102fc6103d136600461201f565b6109d6565b3480156103e257600080fd5b506102fc6103f13660046123b6565b610de5565b34801561040257600080fd5b506103616104113660046123f2565b610df9565b34801561042257600080fd5b506102fc611137565b34801561043757600080fd5b5061018a611149565b34801561044c57600080fd5b506005546001600160a01b0316610396565b34801561046a57600080fd5b5060065461018a565b34801561047f57600080fd5b506102fc61048e36600461209b565b61115f565b34801561049f57600080fd5b506102fc6104ae3660046124d7565b611307565b3480156104bf57600080fd5b5061018a6104ce366004612513565b611312565b3480156104df57600080fd5b506102fc6104ee36600461201f565b6114a0565b3480156104ff57600080fd5b506101bd61050e366004612569565b6115e2565b34801561051f57600080fd5b506102fc61052e36600461259c565b611610565b34801561053f57600080fd5b506102fc61054e366004612600565b61166f565b6000818152602081815260408083206001600160a01b03861684529091529020545b92915050565b6000610575826116ad565b6000818152600860205260408120805460609291906105a49061261b565b80601f01602080910402602001604051908101604052809291908181526020018280546105d09061261b565b801561061d5780601f106105f25761010080835404028352916020019161061d565b820191906000526020600020905b81548152906001019060200180831161060057829003601f168201915b505050505090506000600780546106339061261b565b80601f016020809104026020016040519081016040528092919081815260200182805461065f9061261b565b80156106ac5780601f10610681576101008083540402835291602001916106ac565b820191906000526020600020905b81548152906001019060200180831161068f57829003601f168201915b5050505050905080516000036106c3575092915050565b8151156106f55780826040516020016106dd929190612655565b60405160208183030381529060405292505050919050565b806106ff856116d2565b6040516020016106dd929190612655565b600082815260046020526040812080548291906001600160a01b03811690600160a01b90046001600160601b0316816107645750506003546001600160a01b03811690600160a01b90046001600160601b03165b600061271061077c6001600160601b0384168961269a565b61078691906126b1565b92989297509195505050505050565b336001600160a01b03861681148015906107b657506107b486826115e2565b155b156107ec5760405163711bec9160e11b81526001600160a01b038083166004830152871660248201526044015b60405180910390fd5b6107f98686868686611764565b505050505050565b6108096117cb565b478061084c5760405162461bcd60e51b81526020600482015260126024820152714e6f2045544820746f20776974686472617760701b60448201526064016107e3565b60006108606005546001600160a01b031690565b6001600160a01b03168260405160006040518083038185875af1925050503d80600081146108aa576040519150601f19603f3d011682016040523d82523d6000602084013e6108af565b606091505b50509050806108f45760405162461bcd60e51b815260206004820152601160248201527015da5d1a191c985dd85b0819985a5b1959607a1b60448201526064016107e3565b5050565b606081518351146109295781518351604051635b05999160e01b8152600481019290925260248201526044016107e3565b600083516001600160401b03811115610944576109446120bd565b60405190808252806020026020018201604052801561096d578160200160208202803683370190505b50905060005b84518110156109c45760208082028601015161099790602080840287010151610553565b8282815181106109a9576109a96126d3565b60209081029190910101526109bd816126e9565b9050610973565b509392505050565b6109d46117cb565b565b600081815260096020908152604091829020825160808101845281546001600160a01b03168152600182015492810192909252600281015460ff16151592820183905260030154606082015290610a6f5760405162461bcd60e51b815260206004820152601a60248201527f4e4654206973206e6f74206c697374656420666f722073616c6500000000000060448201526064016107e3565b8060200151341015610aba5760405162461bcd60e51b8152602060048201526014602482015273125b9cdd59999a58da595b9d081c185e5b595b9d60621b60448201526064016107e3565b80516001600160a01b03163303610b135760405162461bcd60e51b815260206004820152601760248201527f43616e6e6f742062757920796f7572206f776e204e465400000000000000000060448201526064016107e3565b60006127106101f46001600160601b03168360200151610b33919061269a565b610b3d91906126b1565b90506000818360200151610b519190612702565b9050610b74836000015133866001604051806020016040528060008152506117f8565b60405160009073f51fe86498b83538e902e160f2d80c34c7d6b8169084908381818185875af1925050503d8060008114610bca576040519150601f19603f3d011682016040523d82523d6000602084013e610bcf565b606091505b5050905080610c205760405162461bcd60e51b815260206004820152601760248201527f526f79616c7479207472616e73666572206661696c656400000000000000000060448201526064016107e3565b83516040516000916001600160a01b03169084908381818185875af1925050503d8060008114610c6c576040519150601f19603f3d011682016040523d82523d6000602084013e610c71565b606091505b5050905080610cba5760405162461bcd60e51b815260206004820152601560248201527414d95b1b195c881c185e5b595b9d0819985a5b1959605a1b60448201526064016107e3565b8460200151341115610d5e5760208501516000903390610cda9034612702565b604051600081818185875af1925050503d8060008114610d16576040519150601f19603f3d011682016040523d82523d6000602084013e610d1b565b606091505b5050905080610d5c5760405162461bcd60e51b815260206004820152600d60248201526c1499599d5b990819985a5b1959609a1b60448201526064016107e3565b505b600086815260096020908152604080832080546001600160a01b03191681556001810184905560028101805460ff19169055600301929092558651878201519251928352889233926001600160a01b03909216917ff6ccc0cf89c21c54724ea6ef2ec01da8fe33a1cebe06607e160fd78483eba302910160405180910390a4505050505050565b610ded6117cb565b60076108f4828261275b565b6060610e036117cb565b6001600160a01b038416610e595760405162461bcd60e51b815260206004820152601b60248201527f43616e6e6f74206d696e7420746f207a65726f2061646472657373000000000060448201526064016107e3565b8151835114610ea35760405162461bcd60e51b8152602060048201526016602482015275082e4e4c2f2e640d8cadccee8d040dad2e6dac2e8c6d60531b60448201526064016107e3565b6000835111610eed5760405162461bcd60e51b81526020600482015260166024820152754172726179732063616e6e6f7420626520656d70747960501b60448201526064016107e3565b600083516001600160401b03811115610f0857610f086120bd565b604051908082528060200260200182016040528015610f31578160200160208202803683370190505b50905060005b845181101561112e576000858281518110610f5457610f546126d3565b60200260200101515111610faa5760405162461bcd60e51b815260206004820152601c60248201527f4d65746164617461205552492063616e6e6f7420626520656d7074790000000060448201526064016107e3565b6000848281518110610fbe57610fbe6126d3565b6020026020010151116110135760405162461bcd60e51b815260206004820152601d60248201527f416d6f756e74206d7573742062652067726561746572207468616e203000000060448201526064016107e3565b60068054906000611023836126e9565b9190505550600060065490506110638782878581518110611046576110466126d3565b602002602001015160405180602001604052806000815250611886565b61108681878481518110611079576110796126d3565b60200260200101516118e3565b80838381518110611099576110996126d3565b60200260200101818152505080876001600160a01b03167f7f9dd5d8fa69e733db2277a568b65a9651a3042da18fb2b5ea1966d3891cbfda8885815181106110e3576110e36126d3565b60200260200101518886815181106110fd576110fd6126d3565b602002602001015160405161111392919061281a565b60405180910390a35080611126816126e9565b915050610f37565b50949350505050565b61113f6117cb565b6109d46000611900565b6000600654600161115a919061283c565b905090565b600061116b3384610553565b116111b15760405162461bcd60e51b8152602060048201526016602482015275165bdd48191bdb89dd081bdddb881d1a1a5cc813919560521b60448201526064016107e3565b600081116112015760405162461bcd60e51b815260206004820152601c60248201527f5072696365206d7573742062652067726561746572207468616e20300000000060448201526064016107e3565b60008281526009602052604090206002015460ff161561125b5760405162461bcd60e51b8152602060048201526015602482015274139195081a5cc8185b1c9958591e481b1a5cdd1959605a1b60448201526064016107e3565b604080516080810182523380825260208083018581526001848601818152426060870190815260008a815260098652889020965187546001600160a01b0319166001600160a01b039091161787559251918601919091555160028501805460ff19169115159190911790555160039093019290925591518381528492917fbbf44e68296791df5535457da734bf1017c4b233a740af6d7a89b9f1af4ecb42910160405180910390a35050565b6108f4338383611952565b600061131c6117cb565b6001600160a01b0384166113725760405162461bcd60e51b815260206004820152601b60248201527f43616e6e6f74206d696e7420746f207a65726f2061646472657373000000000060448201526064016107e3565b60008351116113c35760405162461bcd60e51b815260206004820152601c60248201527f4d65746164617461205552492063616e6e6f7420626520656d7074790000000060448201526064016107e3565b600082116114135760405162461bcd60e51b815260206004820152601d60248201527f416d6f756e74206d7573742062652067726561746572207468616e203000000060448201526064016107e3565b60068054906000611423836126e9565b91905055506000600654905061144a85828560405180602001604052806000815250611886565b61145481856118e3565b80856001600160a01b03167f7f9dd5d8fa69e733db2277a568b65a9651a3042da18fb2b5ea1966d3891cbfda868660405161149092919061281a565b60405180910390a3949350505050565b600081815260096020908152604091829020825160808101845281546001600160a01b03168152600182015492810192909252600281015460ff1615159282018390526003015460608201529061152d5760405162461bcd60e51b8152602060048201526011602482015270139195081a5cc81b9bdd081b1a5cdd1959607a1b60448201526064016107e3565b80516001600160a01b0316331461157f5760405162461bcd60e51b815260206004820152601660248201527513db9b1e481cd95b1b195c8818d85b8819195b1a5cdd60521b60448201526064016107e3565b60008281526009602052604080822080546001600160a01b03191681556001810183905560028101805460ff1916905560030182905551839133917f62d66f5d387e08db35989a64daa510d22a7232d53039c6539e9bf747845f83e79190a35050565b6001600160a01b03918216600090815260016020908152604080832093909416825291909152205460ff1690565b336001600160a01b0386168114801590611631575061162f86826115e2565b155b156116625760405163711bec9160e11b81526001600160a01b038083166004830152871660248201526044016107e3565b6107f986868686866117f8565b6116776117cb565b6001600160a01b0381166116a157604051631e4fbdf760e01b8152600060048201526024016107e3565b6116aa81611900565b50565b60006001600160e01b0319821663152a902d60e11b14806105755750610575826119e8565b606060006116df83611a38565b60010190506000816001600160401b038111156116fe576116fe6120bd565b6040519080825280601f01601f191660200182016040528015611728576020820181803683370190505b5090508181016020015b600019016f181899199a1a9b1b9c1cb0b131b232b360811b600a86061a8153600a850494508461173257509392505050565b6001600160a01b03841661178e57604051632bfa23e760e11b8152600060048201526024016107e3565b6001600160a01b0385166117b757604051626a0d4560e21b8152600060048201526024016107e3565b6117c48585858585611b10565b5050505050565b6005546001600160a01b031633146109d45760405163118cdaa760e01b81523360048201526024016107e3565b6001600160a01b03841661182257604051632bfa23e760e11b8152600060048201526024016107e3565b6001600160a01b03851661184b57604051626a0d4560e21b8152600060048201526024016107e3565b6040805160018082526020820186905281830190815260608201859052608082019092529061187d8787848487611b10565b50505050505050565b6001600160a01b0384166118b057604051632bfa23e760e11b8152600060048201526024016107e3565b604080516001808252602082018690528183019081526060820185905260808201909252906107f9600087848487611b10565b60008281526008602052604090206118fb828261275b565b505050565b600580546001600160a01b038381166001600160a01b0319831681179093556040519116919082907f8be0079c531659141344cd1fd0a4f28419497f9722a3daafe3b4186f6b6457e090600090a35050565b6001600160a01b03821661197b5760405162ced3e160e81b8152600060048201526024016107e3565b6001600160a01b03838116600081815260016020908152604080832094871680845294825291829020805460ff191686151590811790915591519182527f17307eab39ab6107e8899845ad3d59bd9653f200f220920489ca2b5937696c31910160405180910390a3505050565b60006001600160e01b03198216636cdb3d1360e11b1480611a1957506001600160e01b031982166303a24d0760e21b145b8061057557506301ffc9a760e01b6001600160e01b0319831614610575565b60008072184f03e93ff9f4daa797ed6e38ed64bf6a1f0160401b8310611a775772184f03e93ff9f4daa797ed6e38ed64bf6a1f0160401b830492506040015b6d04ee2d6d415b85acef81000000008310611aa3576d04ee2d6d415b85acef8100000000830492506020015b662386f26fc100008310611ac157662386f26fc10000830492506010015b6305f5e1008310611ad9576305f5e100830492506008015b6127108310611aed57612710830492506004015b60648310611aff576064830492506002015b600a83106105755760010192915050565b611b1c85858585611b63565b6001600160a01b038416156117c45782513390600103611b555760208481015190840151611b4e838989858589611b75565b50506107f9565b6107f9818787878787611c99565b611b6f84848484611d82565b50505050565b6001600160a01b0384163b156107f95760405163f23a6e6160e01b81526001600160a01b0385169063f23a6e6190611bb9908990899088908890889060040161284f565b6020604051808303816000875af1925050508015611bf4575060408051601f3d908101601f19168201909252611bf191810190612894565b60015b611c5d573d808015611c22576040519150601f19603f3d011682016040523d82523d6000602084013e611c27565b606091505b508051600003611c5557604051632bfa23e760e11b81526001600160a01b03861660048201526024016107e3565b805160208201fd5b6001600160e01b0319811663f23a6e6160e01b1461187d57604051632bfa23e760e11b81526001600160a01b03861660048201526024016107e3565b6001600160a01b0384163b156107f95760405163bc197c8160e01b81526001600160a01b0385169063bc197c8190611cdd90899089908890889088906004016128b1565b6020604051808303816000875af1925050508015611d18575060408051601f3d908101601f19168201909252611d1591810190612894565b60015b611d46573d808015611c22576040519150601f19603f3d011682016040523d82523d6000602084013e611c27565b6001600160e01b0319811663bc197c8160e01b1461187d57604051632bfa23e760e11b81526001600160a01b03861660048201526024016107e3565b8051825114611db15781518151604051635b05999160e01b8152600481019290925260248201526044016107e3565b3360005b8351811015611ec0576020818102858101820151908501909101516001600160a01b03881615611e68576000828152602081815260408083206001600160a01b038c16845290915290205481811015611e41576040516303dee4c560e01b81526001600160a01b038a1660048201526024810182905260448101839052606481018490526084016107e3565b6000838152602081815260408083206001600160a01b038d16845290915290209082900390555b6001600160a01b03871615611ead576000828152602081815260408083206001600160a01b038b16845290915281208054839290611ea790849061283c565b90915550505b505080611eb9906126e9565b9050611db5565b508251600103611f415760208301516000906020840151909150856001600160a01b0316876001600160a01b0316846001600160a01b03167fc3d58168c5ae7397731d063d5bbf3d657854427343f4c083240f7aacaa2d0f628585604051611f32929190918252602082015260400190565b60405180910390a450506117c4565b836001600160a01b0316856001600160a01b0316826001600160a01b03167f4a39dc06d4c0dbc64b70af90fd698a233a518aa5d07e595d983b8c0526c8f7fb8686604051611f9092919061290f565b60405180910390a45050505050565b80356001600160a01b0381168114611fb657600080fd5b919050565b60008060408385031215611fce57600080fd5b611fd783611f9f565b946020939093013593505050565b6001600160e01b0319811681146116aa57600080fd5b60006020828403121561200d57600080fd5b813561201881611fe5565b9392505050565b60006020828403121561203157600080fd5b5035919050565b60005b8381101561205357818101518382015260200161203b565b50506000910152565b60008151808452612074816020860160208601612038565b601f01601f19169290920160200192915050565b602081526000612018602083018461205c565b600080604083850312156120ae57600080fd5b50508035926020909101359150565b634e487b7160e01b600052604160045260246000fd5b604051601f8201601f191681016001600160401b03811182821017156120fb576120fb6120bd565b604052919050565b60006001600160401b0382111561211c5761211c6120bd565b5060051b60200190565b600082601f83011261213757600080fd5b8135602061214c61214783612103565b6120d3565b82815260059290921b8401810191818101908684111561216b57600080fd5b8286015b84811015612186578035835291830191830161216f565b509695505050505050565b600082601f8301126121a257600080fd5b81356001600160401b038111156121bb576121bb6120bd565b6121ce601f8201601f19166020016120d3565b8181528460208386010111156121e357600080fd5b816020850160208301376000918101602001919091529392505050565b600080600080600060a0868803121561221857600080fd5b61222186611f9f565b945061222f60208701611f9f565b935060408601356001600160401b038082111561224b57600080fd5b61225789838a01612126565b9450606088013591508082111561226d57600080fd5b61227989838a01612126565b9350608088013591508082111561228f57600080fd5b5061229c88828901612191565b9150509295509295909350565b600080604083850312156122bc57600080fd5b82356001600160401b03808211156122d357600080fd5b818501915085601f8301126122e757600080fd5b813560206122f761214783612103565b82815260059290921b8401810191818101908984111561231657600080fd5b948201945b8386101561233b5761232c86611f9f565b8252948201949082019061231b565b9650508601359250508082111561235157600080fd5b5061235e85828601612126565b9150509250929050565b600081518084526020808501945080840160005b838110156123985781518752958201959082019060010161237c565b509495945050505050565b6020815260006120186020830184612368565b6000602082840312156123c857600080fd5b81356001600160401b038111156123de57600080fd5b6123ea84828501612191565b949350505050565b60008060006060848603121561240757600080fd5b61241084611f9f565b92506020808501356001600160401b038082111561242d57600080fd5b818701915087601f83011261244157600080fd5b813561244f61214782612103565b81815260059190911b8301840190848101908a83111561246e57600080fd5b8585015b838110156124a65780358581111561248a5760008081fd5b6124988d89838a0101612191565b845250918601918601612472565b509650505060408701359250808311156124bf57600080fd5b50506124cd86828701612126565b9150509250925092565b600080604083850312156124ea57600080fd5b6124f383611f9f565b91506020830135801515811461250857600080fd5b809150509250929050565b60008060006060848603121561252857600080fd5b61253184611f9f565b925060208401356001600160401b0381111561254c57600080fd5b61255886828701612191565b925050604084013590509250925092565b6000806040838503121561257c57600080fd5b61258583611f9f565b915061259360208401611f9f565b90509250929050565b600080600080600060a086880312156125b457600080fd5b6125bd86611f9f565b94506125cb60208701611f9f565b9350604086013592506060860135915060808601356001600160401b038111156125f457600080fd5b61229c88828901612191565b60006020828403121561261257600080fd5b61201882611f9f565b600181811c9082168061262f57607f821691505b60208210810361264f57634e487b7160e01b600052602260045260246000fd5b50919050565b60008351612667818460208801612038565b83519083019061267b818360208801612038565b01949350505050565b634e487b7160e01b600052601160045260246000fd5b808202811582820484141761057557610575612684565b6000826126ce57634e487b7160e01b600052601260045260246000fd5b500490565b634e487b7160e01b600052603260045260246000fd5b6000600182016126fb576126fb612684565b5060010190565b8181038181111561057557610575612684565b601f8211156118fb57600081815260208120601f850160051c8101602086101561273c5750805b601f850160051c820191505b818110156107f957828155600101612748565b81516001600160401b03811115612774576127746120bd565b61278881612782845461261b565b84612715565b602080601f8311600181146127bd57600084156127a55750858301515b600019600386901b1c1916600185901b1785556107f9565b600085815260208120601f198616915b828110156127ec578886015182559484019460019091019084016127cd565b508582101561280a5787850151600019600388901b60f8161c191681555b5050505050600190811b01905550565b60408152600061282d604083018561205c565b90508260208301529392505050565b8082018082111561057557610575612684565b6001600160a01b03868116825285166020820152604081018490526060810183905260a0608082018190526000906128899083018461205c565b979650505050505050565b6000602082840312156128a657600080fd5b815161201881611fe5565b6001600160a01b0386811682528516602082015260a0604082018190526000906128dd90830186612368565b82810360608401526128ef8186612368565b90508281036080840152612903818561205c565b98975050505050505050565b6040815260006129226040830185612368565b82810360208401526129348185612368565b9594505050505056fea264697066735822122083faf202ad235a1ec6ec0be7a7fd2c09e9c2e2a9a80958a8cbc4fd3c2853d91364736f6c63430008140033",
  "linkReferences": {},
  "deployedLinkReferences": {}
}