{
  "_format": "hh-sol-artifact-1",
  "contractName": "FriendsweeperNFT",
  "sourceName": "contracts/FriendsweeperNFT.sol",
  "abi": [
    {
      "inputs": [],
      "stateMutability": "nonpayable",
      "type": "constructor"
    },
    {
      "inputs": [
        {
          "internalType": "address",
          "name": "sender",
          "type": "address"
        },
        {
          "internalType": "uint256",
          "name": "balance",
          "type": "uint256"
        },
        {
          "internalType": "uint256",
          "name": "needed",
          "type": "uint256"
        },
        {
          "internalType": "uint256",
          "name": "tokenId",
          "type": "uint256"
        }
      ],
      "name": "ERC1155InsufficientBalance",
      "type": "error"
    },
    {
      "inputs": [
        {
          "internalType": "address",
          "name": "approver",
          "type": "address"
        }
      ],
      "name": "ERC1155InvalidApprover",
      "type": "error"
    },
    {
      "inputs": [
        {
          "internalType": "uint256",
          "name": "idsLength",
          "type": "uint256"
        },
        {
          "internalType": "uint256",
          "name": "valuesLength",
          "type": "uint256"
        }
      ],
      "name": "ERC1155InvalidArrayLength",
      "type": "error"
    },
    {
      "inputs": [
        {
          "internalType": "address",
          "name": "operator",
          "type": "address"
        }
      ],
      "name": "ERC1155InvalidOperator",
      "type": "error"
    },
    {
      "inputs": [
        {
          "internalType": "address",
          "name": "receiver",
          "type": "address"
        }
      ],
      "name": "ERC1155InvalidReceiver",
      "type": "error"
    },
    {
      "inputs": [
        {
          "internalType": "address",
          "name": "sender",
          "type": "address"
        }
      ],
      "name": "ERC1155InvalidSender",
      "type": "error"
    },
    {
      "inputs": [
        {
          "internalType": "address",
          "name": "operator",
          "type": "address"
        },
        {
          "internalType": "address",
          "name": "owner",
          "type": "address"
        }
      ],
      "name": "ERC1155MissingApprovalForAll",
      "type": "error"
    },
    {
      "inputs": [
        {
          "internalType": "address",
          "name": "owner",
          "type": "address"
        }
      ],
      "name": "OwnableInvalidOwner",
      "type": "error"
    },
    {
      "inputs": [
        {
          "internalType": "address",
          "name": "account",
          "type": "address"
        }
      ],
      "name": "OwnableUnauthorizedAccount",
      "type": "error"
    },
    {
      "anonymous": false,
      "inputs": [
        {
          "indexed": true,
          "internalType": "address",
          "name": "account",
          "type": "address"
        },
        {
          "indexed": true,
          "internalType": "address",
          "name": "operator",
          "type": "address"
        },
        {
          "indexed": false,
          "internalType": "bool",
          "name": "approved",
          "type": "bool"
        }
      ],
      "name": "ApprovalForAll",
      "type": "event"
    },
    {
      "anonymous": false,
      "inputs": [
        {
          "indexed": true,
          "internalType": "address",
          "name": "to",
          "type": "address"
        },
        {
          "indexed": true,
          "internalType": "uint256",
          "name": "tokenId",
          "type": "uint256"
        },
        {
          "indexed": false,
          "internalType": "string",
          "name": "tokenURI",
          "type": "string"
        },
        {
          "indexed": false,
          "internalType": "uint256",
          "name": "amount",
          "type": "uint256"
        }
      ],
      "name": "NFTMinted",
      "type": "event"
    },
    {
      "anonymous": false,
      "inputs": [
        {
          "indexed": true,
          "internalType": "address",
          "name": "previousOwner",
          "type": "address"
        },
        {
          "indexed": true,
          "internalType": "address",
          "name": "newOwner",
          "type": "address"
        }
      ],
      "name": "OwnershipTransferred",
      "type": "event"
    },
    {
      "anonymous": false,
      "inputs": [
        {
          "indexed": true,
          "internalType": "address",
          "name": "operator",
          "type": "address"
        },
        {
          "indexed": true,
          "internalType": "address",
          "name": "from",
          "type": "address"
        },
        {
          "indexed": true,
          "internalType": "address",
          "name": "to",
          "type": "address"
        },
        {
          "indexed": false,
          "internalType": "uint256[]",
          "name": "ids",
          "type": "uint256[]"
        },
        {
          "indexed": false,
          "internalType": "uint256[]",
          "name": "values",
          "type": "uint256[]"
        }
      ],
      "name": "TransferBatch",
      "type": "event"
    },
    {
      "anonymous": false,
      "inputs": [
        {
          "indexed": true,
          "internalType": "address",
          "name": "operator",
          "type": "address"
        },
        {
          "indexed": true,
          "internalType": "address",
          "name": "from",
          "type": "address"
        },
        {
          "indexed": true,
          "internalType": "address",
          "name": "to",
          "type": "address"
        },
        {
          "indexed": false,
          "internalType": "uint256",
          "name": "id",
          "type": "uint256"
        },
        {
          "indexed": false,
          "internalType": "uint256",
          "name": "value",
          "type": "uint256"
        }
      ],
      "name": "TransferSingle",
      "type": "event"
    },
    {
      "anonymous": false,
      "inputs": [
        {
          "indexed": false,
          "internalType": "string",
          "name": "value",
          "type": "string"
        },
        {
          "indexed": true,
          "internalType": "uint256",
          "name": "id",
          "type": "uint256"
        }
      ],
      "name": "URI",
      "type": "event"
    },
    {
      "inputs": [
        {
          "internalType": "address",
          "name": "account",
          "type": "address"
        },
        {
          "internalType": "uint256",
          "name": "id",
          "type": "uint256"
        }
      ],
      "name": "balanceOf",
      "outputs": [
        {
          "internalType": "uint256",
          "name": "",
          "type": "uint256"
        }
      ],
      "stateMutability": "view",
      "type": "function"
    },
    {
      "inputs": [
        {
          "internalType": "address[]",
          "name": "accounts",
          "type": "address[]"
        },
        {
          "internalType": "uint256[]",
          "name": "ids",
          "type": "uint256[]"
        }
      ],
      "name": "balanceOfBatch",
      "outputs": [
        {
          "internalType": "uint256[]",
          "name": "",
          "type": "uint256[]"
        }
      ],
      "stateMutability": "view",
      "type": "function"
    },
    {
      "inputs": [
        {
          "internalType": "address",
          "name": "to",
          "type": "address"
        },
        {
          "internalType": "string[]",
          "name": "metadataURIs",
          "type": "string[]"
        },
        {
          "internalType": "uint256[]",
          "name": "amounts",
          "type": "uint256[]"
        }
      ],
      "name": "batchMint",
      "outputs": [
        {
          "internalType": "uint256[]",
          "name": "",
          "type": "uint256[]"
        }
      ],
      "stateMutability": "nonpayable",
      "type": "function"
    },
    {
      "inputs": [],
      "name": "emergencyPause",
      "outputs": [],
      "stateMutability": "nonpayable",
      "type": "function"
    },
    {
      "inputs": [
        {
          "internalType": "address",
          "name": "account",
          "type": "address"
        },
        {
          "internalType": "address",
          "name": "operator",
          "type": "address"
        }
      ],
      "name": "isApprovedForAll",
      "outputs": [
        {
          "internalType": "bool",
          "name": "",
          "type": "bool"
        }
      ],
      "stateMutability": "view",
      "type": "function"
    },
    {
      "inputs": [
        {
          "internalType": "address",
          "name": "to",
          "type": "address"
        },
        {
          "internalType": "string",
          "name": "metadataURI",
          "type": "string"
        },
        {
          "internalType": "uint256",
          "name": "amount",
          "type": "uint256"
        }
      ],
      "name": "mint",
      "outputs": [
        {
          "internalType": "uint256",
          "name": "",
          "type": "uint256"
        }
      ],
      "stateMutability": "nonpayable",
      "type": "function"
    },
    {
      "inputs": [],
      "name": "nextTokenId",
      "outputs": [
        {
          "internalType": "uint256",
          "name": "",
          "type": "uint256"
        }
      ],
      "stateMutability": "view",
      "type": "function"
    },
    {
      "inputs": [],
      "name": "owner",
      "outputs": [
        {
          "internalType": "address",
          "name": "",
          "type": "address"
        }
      ],
      "stateMutability": "view",
      "type": "function"
    },
    {
      "inputs": [],
      "name": "renounceOwnership",
      "outputs": [],
      "stateMutability": "nonpayable",
      "type": "function"
    },
    {
      "inputs": [
        {
          "internalType": "address",
          "name": "from",
          "type": "address"
        },
        {
          "internalType": "address",
          "name": "to",
          "type": "address"
        },
        {
          "internalType": "uint256[]",
          "name": "ids",
          "type": "uint256[]"
        },
        {
          "internalType": "uint256[]",
          "name": "values",
          "type": "uint256[]"
        },
        {
          "internalType": "bytes",
          "name": "data",
          "type": "bytes"
        }
      ],
      "name": "safeBatchTransferFrom",
      "outputs": [],
      "stateMutability": "nonpayable",
      "type": "function"
    },
    {
      "inputs": [
        {
          "internalType": "address",
          "name": "from",
          "type": "address"
        },
        {
          "internalType": "address",
          "name": "to",
          "type": "address"
        },
        {
          "internalType": "uint256",
          "name": "id",
          "type": "uint256"
        },
        {
          "internalType": "uint256",
          "name": "value",
          "type": "uint256"
        },
        {
          "internalType": "bytes",
          "name": "data",
          "type": "bytes"
        }
      ],
      "name": "safeTransferFrom",
      "outputs": [],
      "stateMutability": "nonpayable",
      "type": "function"
    },
    {
      "inputs": [
        {
          "internalType": "address",
          "name": "operator",
          "type": "address"
        },
        {
          "internalType": "bool",
          "name": "approved",
          "type": "bool"
        }
      ],
      "name": "setApprovalForAll",
      "outputs": [],
      "stateMutability": "nonpayable",
      "type": "function"
    },
    {
      "inputs": [
        {
          "internalType": "string",
          "name": "baseURI",
          "type": "string"
        }
      ],
      "name": "setBaseURI",
      "outputs": [],
      "stateMutability": "nonpayable",
      "type": "function"
    },
    {
      "inputs": [
        {
          "internalType": "bytes4",
          "name": "interfaceId",
          "type": "bytes4"
        }
      ],
      "name": "supportsInterface",
      "outputs": [
        {
          "internalType": "bool",
          "name": "",
          "type": "bool"
        }
      ],
      "stateMutability": "view",
      "type": "function"
    },
    {
      "inputs": [],
      "name": "totalTokenTypes",
      "outputs": [
        {
          "internalType": "uint256",
          "name": "",
          "type": "uint256"
        }
      ],
      "stateMutability": "view",
      "type": "function"
    },
    {
      "inputs": [
        {
          "internalType": "address",
          "name": "newOwner",
          "type": "address"
        }
      ],
      "name": "transferOwnership",
      "outputs": [],
      "stateMutability": "nonpayable",
      "type": "function"
    },
    {
      "inputs": [
        {
          "internalType": "uint256",
          "name": "tokenId",
          "type": "uint256"
        }
      ],
      "name": "uri",
      "outputs": [
        {
          "internalType": "string",
          "name": "",
          "type": "string"
        }
      ],
      "stateMutability": "view",
      "type": "function"
    },
    {
      "inputs": [],
      "name": "withdraw",
      "outputs": [],
      "stateMutability": "nonpayable",
      "type": "function"
    }
  ],
  "bytecode": "0x60806040523480156200001157600080fd5b5060408051602081019091526000815233906200002e816200008f565b506001600160a01b0381166200005e57604051631e4fbdf760e01b81526000600482015260240160405180910390fd5b6200006981620000a1565b5060408051602081019091526000815260059062000088908262000198565b5062000264565b60026200009d828262000198565b5050565b600380546001600160a01b038381166001600160a01b0319831681179093556040519116919082907f8be0079c531659141344cd1fd0a4f28419497f9722a3daafe3b4186f6b6457e090600090a35050565b634e487b7160e01b600052604160045260246000fd5b600181811c908216806200011e57607f821691505b6020821081036200013f57634e487b7160e01b600052602260045260246000fd5b50919050565b601f8211156200019357600081815260208120601f850160051c810160208610156200016e5750805b601f850160051c820191505b818110156200018f578281556001016200017a565b5050505b505050565b81516001600160401b03811115620001b457620001b4620000f3565b620001cc81620001c5845462000109565b8462000145565b602080601f831160018114620002045760008415620001eb5750858301515b600019600386901b1c1916600185901b1785556200018f565b600085815260208120601f198616915b82811015620002355788860151825594840194600190910190840162000214565b5085821015620002545787850151600019600388901b60f8161c191681555b5050505050600190811b01905550565b611e7280620002746000396000f3fe608060405234801561001057600080fd5b50600436106101155760003560e01c8063715018a6116100a2578063a22cb46511610071578063a22cb46514610221578063ba7aef4314610234578063e985e9c514610247578063f242432a1461025a578063f2fde38b1461026d57600080fd5b8063715018a6146101ee57806375794a3c146101f65780638da5cb5b146101fe5780638dfde3391461021957600080fd5b80633ccfd60b116100e95780633ccfd60b146101985780634e1273f4146101a057806351858e27146101c057806355f804b3146101c8578063650bcee0146101db57600080fd5b8062fdd58e1461011a57806301ffc9a7146101405780630e89341c146101635780632eb2c2d614610183575b600080fd5b61012d610128366004611528565b610280565b6040519081526020015b60405180910390f35b61015361014e366004611568565b6102a8565b6040519015158152602001610137565b61017661017136600461158c565b6102f8565b60405161013791906115f5565b61019661019136600461174b565b610482565b005b6101966104ee565b6101b36101ae3660046117f4565b6105e5565b60405161013791906118ee565b6101966106b9565b6101966101d6366004611901565b6106c3565b6101b36101e936600461193d565b6106d7565b610196610a15565b61012d610a27565b6003546040516001600160a01b039091168152602001610137565b60045461012d565b61019661022f366004611a22565b610a3d565b61012d610242366004611a5e565b610a48565b610153610255366004611ab4565b610bd6565b610196610268366004611ae7565b610c04565b61019661027b366004611b4b565b610c63565b6000818152602081815260408083206001600160a01b03861684529091529020545b92915050565b60006001600160e01b03198216636cdb3d1360e11b14806102d957506001600160e01b031982166303a24d0760e21b145b806102a257506301ffc9a760e01b6001600160e01b03198316146102a2565b60008181526006602052604081208054606092919061031690611b66565b80601f016020809104026020016040519081016040528092919081815260200182805461034290611b66565b801561038f5780601f106103645761010080835404028352916020019161038f565b820191906000526020600020905b81548152906001019060200180831161037257829003601f168201915b505050505090506000600580546103a590611b66565b80601f01602080910402602001604051908101604052809291908181526020018280546103d190611b66565b801561041e5780601f106103f35761010080835404028352916020019161041e565b820191906000526020600020905b81548152906001019060200180831161040157829003601f168201915b505050505090508051600003610435575092915050565b81511561046757808260405160200161044f929190611ba0565b60405160208183030381529060405292505050919050565b8061047185610ca1565b60405160200161044f929190611ba0565b336001600160a01b03861681148015906104a357506104a18682610bd6565b155b156104d95760405163711bec9160e11b81526001600160a01b038083166004830152871660248201526044015b60405180910390fd5b6104e68686868686610d33565b505050505050565b6104f6610d9a565b47806105395760405162461bcd60e51b81526020600482015260126024820152714e6f2045544820746f20776974686472617760701b60448201526064016104d0565b600061054d6003546001600160a01b031690565b6001600160a01b03168260405160006040518083038185875af1925050503d8060008114610597576040519150601f19603f3d011682016040523d82523d6000602084013e61059c565b606091505b50509050806105e15760405162461bcd60e51b815260206004820152601160248201527015da5d1a191c985dd85b0819985a5b1959607a1b60448201526064016104d0565b5050565b606081518351146106165781518351604051635b05999160e01b8152600481019290925260248201526044016104d0565b600083516001600160401b0381111561063157610631611608565b60405190808252806020026020018201604052801561065a578160200160208202803683370190505b50905060005b84518110156106b15760208082028601015161068490602080840287010151610280565b82828151811061069657610696611bcf565b60209081029190910101526106aa81611bfb565b9050610660565b509392505050565b6106c1610d9a565b565b6106cb610d9a565b60056105e18282611c5a565b60606106e1610d9a565b6001600160a01b0384166107375760405162461bcd60e51b815260206004820152601b60248201527f43616e6e6f74206d696e7420746f207a65726f2061646472657373000000000060448201526064016104d0565b81518351146107815760405162461bcd60e51b8152602060048201526016602482015275082e4e4c2f2e640d8cadccee8d040dad2e6dac2e8c6d60531b60448201526064016104d0565b60008351116107cb5760405162461bcd60e51b81526020600482015260166024820152754172726179732063616e6e6f7420626520656d70747960501b60448201526064016104d0565b600083516001600160401b038111156107e6576107e6611608565b60405190808252806020026020018201604052801561080f578160200160208202803683370190505b50905060005b8451811015610a0c57600085828151811061083257610832611bcf565b602002602001015151116108885760405162461bcd60e51b815260206004820152601c60248201527f4d65746164617461205552492063616e6e6f7420626520656d7074790000000060448201526064016104d0565b600084828151811061089c5761089c611bcf565b6020026020010151116108f15760405162461bcd60e51b815260206004820152601d60248201527f416d6f756e74206d7573742062652067726561746572207468616e203000000060448201526064016104d0565b6004805490600061090183611bfb565b919050555060006004549050610941878287858151811061092457610924611bcf565b602002602001015160405180602001604052806000815250610dc7565b6109648187848151811061095757610957611bcf565b6020026020010151610e24565b8083838151811061097757610977611bcf565b60200260200101818152505080876001600160a01b03167f7f9dd5d8fa69e733db2277a568b65a9651a3042da18fb2b5ea1966d3891cbfda8885815181106109c1576109c1611bcf565b60200260200101518886815181106109db576109db611bcf565b60200260200101516040516109f1929190611d19565b60405180910390a35080610a0481611bfb565b915050610815565b50949350505050565b610a1d610d9a565b6106c16000610e41565b60006004546001610a389190611d3b565b905090565b6105e1338383610e93565b6000610a52610d9a565b6001600160a01b038416610aa85760405162461bcd60e51b815260206004820152601b60248201527f43616e6e6f74206d696e7420746f207a65726f2061646472657373000000000060448201526064016104d0565b6000835111610af95760405162461bcd60e51b815260206004820152601c60248201527f4d65746164617461205552492063616e6e6f7420626520656d7074790000000060448201526064016104d0565b60008211610b495760405162461bcd60e51b815260206004820152601d60248201527f416d6f756e74206d7573742062652067726561746572207468616e203000000060448201526064016104d0565b60048054906000610b5983611bfb565b919050555060006004549050610b8085828560405180602001604052806000815250610dc7565b610b8a8185610e24565b80856001600160a01b03167f7f9dd5d8fa69e733db2277a568b65a9651a3042da18fb2b5ea1966d3891cbfda8686604051610bc6929190611d19565b60405180910390a3949350505050565b6001600160a01b03918216600090815260016020908152604080832093909416825291909152205460ff1690565b336001600160a01b0386168114801590610c255750610c238682610bd6565b155b15610c565760405163711bec9160e11b81526001600160a01b038083166004830152871660248201526044016104d0565b6104e68686868686610f29565b610c6b610d9a565b6001600160a01b038116610c9557604051631e4fbdf760e01b8152600060048201526024016104d0565b610c9e81610e41565b50565b60606000610cae83610fb7565b60010190506000816001600160401b03811115610ccd57610ccd611608565b6040519080825280601f01601f191660200182016040528015610cf7576020820181803683370190505b5090508181016020015b600019016f181899199a1a9b1b9c1cb0b131b232b360811b600a86061a8153600a8504945084610d0157509392505050565b6001600160a01b038416610d5d57604051632bfa23e760e11b8152600060048201526024016104d0565b6001600160a01b038516610d8657604051626a0d4560e21b8152600060048201526024016104d0565b610d93858585858561108f565b5050505050565b6003546001600160a01b031633146106c15760405163118cdaa760e01b81523360048201526024016104d0565b6001600160a01b038416610df157604051632bfa23e760e11b8152600060048201526024016104d0565b604080516001808252602082018690528183019081526060820185905260808201909252906104e660008784848761108f565b6000828152600660205260409020610e3c8282611c5a565b505050565b600380546001600160a01b038381166001600160a01b0319831681179093556040519116919082907f8be0079c531659141344cd1fd0a4f28419497f9722a3daafe3b4186f6b6457e090600090a35050565b6001600160a01b038216610ebc5760405162ced3e160e81b8152600060048201526024016104d0565b6001600160a01b03838116600081815260016020908152604080832094871680845294825291829020805460ff191686151590811790915591519182527f17307eab39ab6107e8899845ad3d59bd9653f200f220920489ca2b5937696c31910160405180910390a3505050565b6001600160a01b038416610f5357604051632bfa23e760e11b8152600060048201526024016104d0565b6001600160a01b038516610f7c57604051626a0d4560e21b8152600060048201526024016104d0565b60408051600180825260208201869052818301908152606082018590526080820190925290610fae878784848761108f565b50505050505050565b60008072184f03e93ff9f4daa797ed6e38ed64bf6a1f0160401b8310610ff65772184f03e93ff9f4daa797ed6e38ed64bf6a1f0160401b830492506040015b6d04ee2d6d415b85acef81000000008310611022576d04ee2d6d415b85acef8100000000830492506020015b662386f26fc10000831061104057662386f26fc10000830492506010015b6305f5e1008310611058576305f5e100830492506008015b612710831061106c57612710830492506004015b6064831061107e576064830492506002015b600a83106102a25760010192915050565b61109b858585856110e2565b6001600160a01b03841615610d9357825133906001036110d457602084810151908401516110cd8389898585896112ff565b50506104e6565b6104e6818787878787611423565b80518251146111115781518151604051635b05999160e01b8152600481019290925260248201526044016104d0565b3360005b8351811015611220576020818102858101820151908501909101516001600160a01b038816156111c8576000828152602081815260408083206001600160a01b038c168452909152902054818110156111a1576040516303dee4c560e01b81526001600160a01b038a1660048201526024810182905260448101839052606481018490526084016104d0565b6000838152602081815260408083206001600160a01b038d16845290915290209082900390555b6001600160a01b0387161561120d576000828152602081815260408083206001600160a01b038b16845290915281208054839290611207908490611d3b565b90915550505b50508061121990611bfb565b9050611115565b5082516001036112a15760208301516000906020840151909150856001600160a01b0316876001600160a01b0316846001600160a01b03167fc3d58168c5ae7397731d063d5bbf3d657854427343f4c083240f7aacaa2d0f628585604051611292929190918252602082015260400190565b60405180910390a45050610d93565b836001600160a01b0316856001600160a01b0316826001600160a01b03167f4a39dc06d4c0dbc64b70af90fd698a233a518aa5d07e595d983b8c0526c8f7fb86866040516112f0929190611d4e565b60405180910390a45050505050565b6001600160a01b0384163b156104e65760405163f23a6e6160e01b81526001600160a01b0385169063f23a6e61906113439089908990889088908890600401611d7c565b6020604051808303816000875af192505050801561137e575060408051601f3d908101601f1916820190925261137b91810190611dc1565b60015b6113e7573d8080156113ac576040519150601f19603f3d011682016040523d82523d6000602084013e6113b1565b606091505b5080516000036113df57604051632bfa23e760e11b81526001600160a01b03861660048201526024016104d0565b805160208201fd5b6001600160e01b0319811663f23a6e6160e01b14610fae57604051632bfa23e760e11b81526001600160a01b03861660048201526024016104d0565b6001600160a01b0384163b156104e65760405163bc197c8160e01b81526001600160a01b0385169063bc197c81906114679089908990889088908890600401611dde565b6020604051808303816000875af19250505080156114a2575060408051601f3d908101601f1916820190925261149f91810190611dc1565b60015b6114d0573d8080156113ac576040519150601f19603f3d011682016040523d82523d6000602084013e6113b1565b6001600160e01b0319811663bc197c8160e01b14610fae57604051632bfa23e760e11b81526001600160a01b03861660048201526024016104d0565b80356001600160a01b038116811461152357600080fd5b919050565b6000806040838503121561153b57600080fd5b6115448361150c565b946020939093013593505050565b6001600160e01b031981168114610c9e57600080fd5b60006020828403121561157a57600080fd5b813561158581611552565b9392505050565b60006020828403121561159e57600080fd5b5035919050565b60005b838110156115c05781810151838201526020016115a8565b50506000910152565b600081518084526115e18160208601602086016115a5565b601f01601f19169290920160200192915050565b60208152600061158560208301846115c9565b634e487b7160e01b600052604160045260246000fd5b604051601f8201601f191681016001600160401b038111828210171561164657611646611608565b604052919050565b60006001600160401b0382111561166757611667611608565b5060051b60200190565b600082601f83011261168257600080fd5b813560206116976116928361164e565b61161e565b82815260059290921b840181019181810190868411156116b657600080fd5b8286015b848110156116d157803583529183019183016116ba565b509695505050505050565b600082601f8301126116ed57600080fd5b81356001600160401b0381111561170657611706611608565b611719601f8201601f191660200161161e565b81815284602083860101111561172e57600080fd5b816020850160208301376000918101602001919091529392505050565b600080600080600060a0868803121561176357600080fd5b61176c8661150c565b945061177a6020870161150c565b935060408601356001600160401b038082111561179657600080fd5b6117a289838a01611671565b945060608801359150808211156117b857600080fd5b6117c489838a01611671565b935060808801359150808211156117da57600080fd5b506117e7888289016116dc565b9150509295509295909350565b6000806040838503121561180757600080fd5b82356001600160401b038082111561181e57600080fd5b818501915085601f83011261183257600080fd5b813560206118426116928361164e565b82815260059290921b8401810191818101908984111561186157600080fd5b948201945b83861015611886576118778661150c565b82529482019490820190611866565b9650508601359250508082111561189c57600080fd5b506118a985828601611671565b9150509250929050565b600081518084526020808501945080840160005b838110156118e3578151875295820195908201906001016118c7565b509495945050505050565b60208152600061158560208301846118b3565b60006020828403121561191357600080fd5b81356001600160401b0381111561192957600080fd5b611935848285016116dc565b949350505050565b60008060006060848603121561195257600080fd5b61195b8461150c565b92506020808501356001600160401b038082111561197857600080fd5b818701915087601f83011261198c57600080fd5b813561199a6116928261164e565b81815260059190911b8301840190848101908a8311156119b957600080fd5b8585015b838110156119f1578035858111156119d55760008081fd5b6119e38d89838a01016116dc565b8452509186019186016119bd565b50965050506040870135925080831115611a0a57600080fd5b5050611a1886828701611671565b9150509250925092565b60008060408385031215611a3557600080fd5b611a3e8361150c565b915060208301358015158114611a5357600080fd5b809150509250929050565b600080600060608486031215611a7357600080fd5b611a7c8461150c565b925060208401356001600160401b03811115611a9757600080fd5b611aa3868287016116dc565b925050604084013590509250925092565b60008060408385031215611ac757600080fd5b611ad08361150c565b9150611ade6020840161150c565b90509250929050565b600080600080600060a08688031215611aff57600080fd5b611b088661150c565b9450611b166020870161150c565b9350604086013592506060860135915060808601356001600160401b03811115611b3f57600080fd5b6117e7888289016116dc565b600060208284031215611b5d57600080fd5b6115858261150c565b600181811c90821680611b7a57607f821691505b602082108103611b9a57634e487b7160e01b600052602260045260246000fd5b50919050565b60008351611bb28184602088016115a5565b835190830190611bc68183602088016115a5565b01949350505050565b634e487b7160e01b600052603260045260246000fd5b634e487b7160e01b600052601160045260246000fd5b600060018201611c0d57611c0d611be5565b5060010190565b601f821115610e3c57600081815260208120601f850160051c81016020861015611c3b5750805b601f850160051c820191505b818110156104e657828155600101611c47565b81516001600160401b03811115611c7357611c73611608565b611c8781611c818454611b66565b84611c14565b602080601f831160018114611cbc5760008415611ca45750858301515b600019600386901b1c1916600185901b1785556104e6565b600085815260208120601f198616915b82811015611ceb57888601518255948401946001909101908401611ccc565b5085821015611d095787850151600019600388901b60f8161c191681555b5050505050600190811b01905550565b604081526000611d2c60408301856115c9565b90508260208301529392505050565b808201808211156102a2576102a2611be5565b604081526000611d6160408301856118b3565b8281036020840152611d7381856118b3565b95945050505050565b6001600160a01b03868116825285166020820152604081018490526060810183905260a060808201819052600090611db6908301846115c9565b979650505050505050565b600060208284031215611dd357600080fd5b815161158581611552565b6001600160a01b0386811682528516602082015260a060408201819052600090611e0a908301866118b3565b8281036060840152611e1c81866118b3565b90508281036080840152611e3081856115c9565b9897505050505050505056fea2646970667358221220a0b31d7defda025b60aed7415bc55eab5142a53170881c7883232ce10a99565e64736f6c63430008140033",
  "linkReferences": {},
  "deployedLinkReferences": {}
}