{
  "_format": "hh-sol-artifact-1",
  "contractName": "FriendsweeperNFT",
  "sourceName": "contracts/FriendsweeperNFT.sol",
  "abi": [
    {
      "inputs": [],
      "stateMutability": "nonpayable",
      "type": "constructor"
    },
    {
      "inputs": [
        {
          "internalType": "address",
          "name": "sender",
          "type": "address"
        },
        {
          "internalType": "uint256",
          "name": "balance",
          "type": "uint256"
        },
        {
          "internalType": "uint256",
          "name": "needed",
          "type": "uint256"
        },
        {
          "internalType": "uint256",
          "name": "tokenId",
          "type": "uint256"
        }
      ],
      "name": "ERC1155InsufficientBalance",
      "type": "error"
    },
    {
      "inputs": [
        {
          "internalType": "address",
          "name": "approver",
          "type": "address"
        }
      ],
      "name": "ERC1155InvalidApprover",
      "type": "error"
    },
    {
      "inputs": [
        {
          "internalType": "uint256",
          "name": "idsLength",
          "type": "uint256"
        },
        {
          "internalType": "uint256",
          "name": "valuesLength",
          "type": "uint256"
        }
      ],
      "name": "ERC1155InvalidArrayLength",
      "type": "error"
    },
    {
      "inputs": [
        {
          "internalType": "address",
          "name": "operator",
          "type": "address"
        }
      ],
      "name": "ERC1155InvalidOperator",
      "type": "error"
    },
    {
      "inputs": [
        {
          "internalType": "address",
          "name": "receiver",
          "type": "address"
        }
      ],
      "name": "ERC1155InvalidReceiver",
      "type": "error"
    },
    {
      "inputs": [
        {
          "internalType": "address",
          "name": "sender",
          "type": "address"
        }
      ],
      "name": "ERC1155InvalidSender",
      "type": "error"
    },
    {
      "inputs": [
        {
          "internalType": "address",
          "name": "operator",
          "type": "address"
        },
        {
          "internalType": "address",
          "name": "owner",
          "type": "address"
        }
      ],
      "name": "ERC1155MissingApprovalForAll",
      "type": "error"
    },
    {
      "inputs": [
        {
          "internalType": "uint256",
          "name": "numerator",
          "type": "uint256"
        },
        {
          "internalType": "uint256",
          "name": "denominator",
          "type": "uint256"
        }
      ],
      "name": "ERC2981InvalidDefaultRoyalty",
      "type": "error"
    },
    {
      "inputs": [
        {
          "internalType": "address",
          "name": "receiver",
          "type": "address"
        }
      ],
      "name": "ERC2981InvalidDefaultRoyaltyReceiver",
      "type": "error"
    },
    {
      "inputs": [
        {
          "internalType": "uint256",
          "name": "tokenId",
          "type": "uint256"
        },
        {
          "internalType": "uint256",
          "name": "numerator",
          "type": "uint256"
        },
        {
          "internalType": "uint256",
          "name": "denominator",
          "type": "uint256"
        }
      ],
      "name": "ERC2981InvalidTokenRoyalty",
      "type": "error"
    },
    {
      "inputs": [
        {
          "internalType": "uint256",
          "name": "tokenId",
          "type": "uint256"
        },
        {
          "internalType": "address",
          "name": "receiver",
          "type": "address"
        }
      ],
      "name": "ERC2981InvalidTokenRoyaltyReceiver",
      "type": "error"
    },
    {
      "inputs": [
        {
          "internalType": "address",
          "name": "owner",
          "type": "address"
        }
      ],
      "name": "OwnableInvalidOwner",
      "type": "error"
    },
    {
      "inputs": [
        {
          "internalType": "address",
          "name": "account",
          "type": "address"
        }
      ],
      "name": "OwnableUnauthorizedAccount",
      "type": "error"
    },
    {
      "anonymous": false,
      "inputs": [
        {
          "indexed": true,
          "internalType": "address",
          "name": "account",
          "type": "address"
        },
        {
          "indexed": true,
          "internalType": "address",
          "name": "operator",
          "type": "address"
        },
        {
          "indexed": false,
          "internalType": "bool",
          "name": "approved",
          "type": "bool"
        }
      ],
      "name": "ApprovalForAll",
      "type": "event"
    },
    {
      "anonymous": false,
      "inputs": [
        {
          "indexed": true,
          "internalType": "address",
          "name": "seller",
          "type": "address"
        },
        {
          "indexed": true,
          "internalType": "uint256",
          "name": "tokenId",
          "type": "uint256"
        }
      ],
      "name": "NFTDelisted",
      "type": "event"
    },
    {
      "anonymous": false,
      "inputs": [
        {
          "indexed": true,
          "internalType": "address",
          "name": "seller",
          "type": "address"
        },
        {
          "indexed": true,
          "internalType": "uint256",
          "name": "tokenId",
          "type": "uint256"
        },
        {
          "indexed": false,
          "internalType": "uint256",
          "name": "price",
          "type": "uint256"
        }
      ],
      "name": "NFTListed",
      "type": "event"
    },
    {
      "anonymous": false,
      "inputs": [
        {
          "indexed": true,
          "internalType": "address",
          "name": "to",
          "type": "address"
        },
        {
          "indexed": true,
          "internalType": "uint256",
          "name": "tokenId",
          "type": "uint256"
        },
        {
          "indexed": false,
          "internalType": "string",
          "name": "tokenURI",
          "type": "string"
        },
        {
          "indexed": false,
          "internalType": "uint256",
          "name": "amount",
          "type": "uint256"
        }
      ],
      "name": "NFTMinted",
      "type": "event"
    },
    {
      "anonymous": false,
      "inputs": [
        {
          "indexed": true,
          "internalType": "address",
          "name": "seller",
          "type": "address"
        },
        {
          "indexed": true,
          "internalType": "address",
          "name": "buyer",
          "type": "address"
        },
        {
          "indexed": true,
          "internalType": "uint256",
          "name": "tokenId",
          "type": "uint256"
        },
        {
          "indexed": false,
          "internalType": "uint256",
          "name": "price",
          "type": "uint256"
        }
      ],
      "name": "NFTSold",
      "type": "event"
    },
    {
      "anonymous": false,
      "inputs": [
        {
          "indexed": true,
          "internalType": "address",
          "name": "previousOwner",
          "type": "address"
        },
        {
          "indexed": true,
          "internalType": "address",
          "name": "newOwner",
          "type": "address"
        }
      ],
      "name": "OwnershipTransferred",
      "type": "event"
    },
    {
      "anonymous": false,
      "inputs": [
        {
          "indexed": true,
          "internalType": "address",
          "name": "operator",
          "type": "address"
        },
        {
          "indexed": true,
          "internalType": "address",
          "name": "from",
          "type": "address"
        },
        {
          "indexed": true,
          "internalType": "address",
          "name": "to",
          "type": "address"
        },
        {
          "indexed": false,
          "internalType": "uint256[]",
          "name": "ids",
          "type": "uint256[]"
        },
        {
          "indexed": false,
          "internalType": "uint256[]",
          "name": "values",
          "type": "uint256[]"
        }
      ],
      "name": "TransferBatch",
      "type": "event"
    },
    {
      "anonymous": false,
      "inputs": [
        {
          "indexed": true,
          "internalType": "address",
          "name": "operator",
          "type": "address"
        },
        {
          "indexed": true,
          "internalType": "address",
          "name": "from",
          "type": "address"
        },
        {
          "indexed": true,
          "internalType": "address",
          "name": "to",
          "type": "address"
        },
        {
          "indexed": false,
          "internalType": "uint256",
          "name": "id",
          "type": "uint256"
        },
        {
          "indexed": false,
          "internalType": "uint256",
          "name": "value",
          "type": "uint256"
        }
      ],
      "name": "TransferSingle",
      "type": "event"
    },
    {
      "anonymous": false,
      "inputs": [
        {
          "indexed": false,
          "internalType": "string",
          "name": "value",
          "type": "string"
        },
        {
          "indexed": true,
          "internalType": "uint256",
          "name": "id",
          "type": "uint256"
        }
      ],
      "name": "URI",
      "type": "event"
    },
    {
      "inputs": [],
      "name": "ROYALTY_PERCENTAGE",
      "outputs": [
        {
          "internalType": "uint96",
          "name": "",
          "type": "uint96"
        }
      ],
      "stateMutability": "view",
      "type": "function"
    },
    {
      "inputs": [],
      "name": "ROYALTY_RECIPIENT",
      "outputs": [
        {
          "internalType": "address",
          "name": "",
          "type": "address"
        }
      ],
      "stateMutability": "view",
      "type": "function"
    },
    {
      "inputs": [
        {
          "internalType": "address",
          "name": "account",
          "type": "address"
        },
        {
          "internalType": "uint256",
          "name": "id",
          "type": "uint256"
        }
      ],
      "name": "balanceOf",
      "outputs": [
        {
          "internalType": "uint256",
          "name": "",
          "type": "uint256"
        }
      ],
      "stateMutability": "view",
      "type": "function"
    },
    {
      "inputs": [
        {
          "internalType": "address[]",
          "name": "accounts",
          "type": "address[]"
        },
        {
          "internalType": "uint256[]",
          "name": "ids",
          "type": "uint256[]"
        }
      ],
      "name": "balanceOfBatch",
      "outputs": [
        {
          "internalType": "uint256[]",
          "name": "",
          "type": "uint256[]"
        }
      ],
      "stateMutability": "view",
      "type": "function"
    },
    {
      "inputs": [
        {
          "internalType": "address",
          "name": "to",
          "type": "address"
        },
        {
          "internalType": "string[]",
          "name": "metadataURIs",
          "type": "string[]"
        },
        {
          "internalType": "uint256[]",
          "name": "amounts",
          "type": "uint256[]"
        }
      ],
      "name": "batchMint",
      "outputs": [
        {
          "internalType": "uint256[]",
          "name": "",
          "type": "uint256[]"
        }
      ],
      "stateMutability": "nonpayable",
      "type": "function"
    },
    {
      "inputs": [
        {
          "internalType": "uint256",
          "name": "tokenId",
          "type": "uint256"
        }
      ],
      "name": "buyNFT",
      "outputs": [],
      "stateMutability": "payable",
      "type": "function"
    },
    {
      "inputs": [
        {
          "internalType": "uint256",
          "name": "tokenId",
          "type": "uint256"
        }
      ],
      "name": "delistNFT",
      "outputs": [],
      "stateMutability": "nonpayable",
      "type": "function"
    },
    {
      "inputs": [],
      "name": "emergencyPause",
      "outputs": [],
      "stateMutability": "nonpayable",
      "type": "function"
    },
    {
      "inputs": [
        {
          "internalType": "uint256",
          "name": "tokenId",
          "type": "uint256"
        }
      ],
      "name": "getListing",
      "outputs": [
        {
          "internalType": "address",
          "name": "seller",
          "type": "address"
        },
        {
          "internalType": "uint256",
          "name": "price",
          "type": "uint256"
        },
        {
          "internalType": "bool",
          "name": "isListed",
          "type": "bool"
        },
        {
          "internalType": "uint256",
          "name": "listingTime",
          "type": "uint256"
        }
      ],
      "stateMutability": "view",
      "type": "function"
    },
    {
      "inputs": [
        {
          "internalType": "address",
          "name": "account",
          "type": "address"
        },
        {
          "internalType": "address",
          "name": "operator",
          "type": "address"
        }
      ],
      "name": "isApprovedForAll",
      "outputs": [
        {
          "internalType": "bool",
          "name": "",
          "type": "bool"
        }
      ],
      "stateMutability": "view",
      "type": "function"
    },
    {
      "inputs": [
        {
          "internalType": "uint256",
          "name": "tokenId",
          "type": "uint256"
        },
        {
          "internalType": "uint256",
          "name": "price",
          "type": "uint256"
        }
      ],
      "name": "listNFT",
      "outputs": [],
      "stateMutability": "nonpayable",
      "type": "function"
    },
    {
      "inputs": [
        {
          "internalType": "address",
          "name": "to",
          "type": "address"
        },
        {
          "internalType": "string",
          "name": "metadataURI",
          "type": "string"
        },
        {
          "internalType": "uint256",
          "name": "amount",
          "type": "uint256"
        }
      ],
      "name": "mint",
      "outputs": [
        {
          "internalType": "uint256",
          "name": "",
          "type": "uint256"
        }
      ],
      "stateMutability": "nonpayable",
      "type": "function"
    },
    {
      "inputs": [
        {
          "internalType": "string",
          "name": "metadataURI",
          "type": "string"
        },
        {
          "internalType": "uint256",
          "name": "amount",
          "type": "uint256"
        }
      ],
      "name": "mintNFT",
      "outputs": [
        {
          "internalType": "uint256",
          "name": "",
          "type": "uint256"
        }
      ],
      "stateMutability": "nonpayable",
      "type": "function"
    },
    {
      "inputs": [],
      "name": "nextTokenId",
      "outputs": [
        {
          "internalType": "uint256",
          "name": "",
          "type": "uint256"
        }
      ],
      "stateMutability": "view",
      "type": "function"
    },
    {
      "inputs": [],
      "name": "owner",
      "outputs": [
        {
          "internalType": "address",
          "name": "",
          "type": "address"
        }
      ],
      "stateMutability": "view",
      "type": "function"
    },
    {
      "inputs": [],
      "name": "renounceOwnership",
      "outputs": [],
      "stateMutability": "nonpayable",
      "type": "function"
    },
    {
      "inputs": [
        {
          "internalType": "uint256",
          "name": "tokenId",
          "type": "uint256"
        },
        {
          "internalType": "uint256",
          "name": "salePrice",
          "type": "uint256"
        }
      ],
      "name": "royaltyInfo",
      "outputs": [
        {
          "internalType": "address",
          "name": "receiver",
          "type": "address"
        },
        {
          "internalType": "uint256",
          "name": "amount",
          "type": "uint256"
        }
      ],
      "stateMutability": "view",
      "type": "function"
    },
    {
      "inputs": [
        {
          "internalType": "address",
          "name": "from",
          "type": "address"
        },
        {
          "internalType": "address",
          "name": "to",
          "type": "address"
        },
        {
          "internalType": "uint256[]",
          "name": "ids",
          "type": "uint256[]"
        },
        {
          "internalType": "uint256[]",
          "name": "values",
          "type": "uint256[]"
        },
        {
          "internalType": "bytes",
          "name": "data",
          "type": "bytes"
        }
      ],
      "name": "safeBatchTransferFrom",
      "outputs": [],
      "stateMutability": "nonpayable",
      "type": "function"
    },
    {
      "inputs": [
        {
          "internalType": "address",
          "name": "from",
          "type": "address"
        },
        {
          "internalType": "address",
          "name": "to",
          "type": "address"
        },
        {
          "internalType": "uint256",
          "name": "id",
          "type": "uint256"
        },
        {
          "internalType": "uint256",
          "name": "value",
          "type": "uint256"
        },
        {
          "internalType": "bytes",
          "name": "data",
          "type": "bytes"
        }
      ],
      "name": "safeTransferFrom",
      "outputs": [],
      "stateMutability": "nonpayable",
      "type": "function"
    },
    {
      "inputs": [
        {
          "internalType": "address",
          "name": "operator",
          "type": "address"
        },
        {
          "internalType": "bool",
          "name": "approved",
          "type": "bool"
        }
      ],
      "name": "setApprovalForAll",
      "outputs": [],
      "stateMutability": "nonpayable",
      "type": "function"
    },
    {
      "inputs": [
        {
          "internalType": "string",
          "name": "baseURI",
          "type": "string"
        }
      ],
      "name": "setBaseURI",
      "outputs": [],
      "stateMutability": "nonpayable",
      "type": "function"
    },
    {
      "inputs": [
        {
          "internalType": "bytes4",
          "name": "interfaceId",
          "type": "bytes4"
        }
      ],
      "name": "supportsInterface",
      "outputs": [
        {
          "internalType": "bool",
          "name": "",
          "type": "bool"
        }
      ],
      "stateMutability": "view",
      "type": "function"
    },
    {
      "inputs": [],
      "name": "totalTokenTypes",
      "outputs": [
        {
          "internalType": "uint256",
          "name": "",
          "type": "uint256"
        }
      ],
      "stateMutability": "view",
      "type": "function"
    },
    {
      "inputs": [
        {
          "internalType": "address",
          "name": "newOwner",
          "type": "address"
        }
      ],
      "name": "transferOwnership",
      "outputs": [],
      "stateMutability": "nonpayable",
      "type": "function"
    },
    {
      "inputs": [
        {
          "internalType": "uint256",
          "name": "tokenId",
          "type": "uint256"
        }
      ],
      "name": "uri",
      "outputs": [
        {
          "internalType": "string",
          "name": "",
          "type": "string"
        }
      ],
      "stateMutability": "view",
      "type": "function"
    },
    {
      "inputs": [],
      "name": "withdraw",
      "outputs": [],
      "stateMutability": "nonpayable",
      "type": "function"
    }
  ],
  "bytecode": "0x60806040523480156200001157600080fd5b5060408051602081019091526000815233906200002e81620000b2565b506001600160a01b0381166200005f57604051631e4fbdf760e01b8152600060048201526024015b60405180910390fd5b6200006a81620000c4565b5060408051602081019091526000815260079062000089908262000262565b50620000ac73f51fe86498b83538e902e160f2d80c34c7d6b8166101f462000116565b6200032e565b6002620000c0828262000262565b5050565b600580546001600160a01b038381166001600160a01b0319831681179093556040519116919082907f8be0079c531659141344cd1fd0a4f28419497f9722a3daafe3b4186f6b6457e090600090a35050565b6127106001600160601b0382168110156200015757604051636f483d0960e01b81526001600160601b03831660048201526024810182905260440162000056565b6001600160a01b0383166200018357604051635b6cc80560e11b81526000600482015260240162000056565b50604080518082019091526001600160a01b039092168083526001600160601b039091166020909201829052600160a01b90910217600355565b634e487b7160e01b600052604160045260246000fd5b600181811c90821680620001e857607f821691505b6020821081036200020957634e487b7160e01b600052602260045260246000fd5b50919050565b601f8211156200025d57600081815260208120601f850160051c81016020861015620002385750805b601f850160051c820191505b81811015620002595782815560010162000244565b5050505b505050565b81516001600160401b038111156200027e576200027e620001bd565b62000296816200028f8454620001d3565b846200020f565b602080601f831160018114620002ce5760008415620002b55750858301515b600019600386901b1c1916600185901b17855562000259565b600085815260208120601f198616915b82811015620002ff57888601518255948401946001909101908401620002de565b50858210156200031e5787850151600019600388901b60f8161c191681555b5050505050600190811b01905550565b612a6e806200033e6000396000f3fe6080604052600436106101805760003560e01c80635afa3a72116100d157806394383f141161008a578063cb917b9c11610064578063cb917b9c1461050e578063e985e9c51461052e578063f242432a1461054e578063f2fde38b1461056e57600080fd5b806394383f14146104ae578063a22cb465146104ce578063ba7aef43146104ee57600080fd5b80635afa3a7214610411578063650bcee014610431578063715018a61461045157806375794a3c146104665780638da5cb5b1461047b5780638dfde3391461049957600080fd5b80633ccfd60b1161013e57806350fe03f61161011857806350fe03f61461038957806351858e27146103c957806351ed8288146103de57806355f804b3146103f157600080fd5b80633ccfd60b14610319578063463b08db1461032e5780634e1273f41461035c57600080fd5b8062fdd58e1461018557806301ffc9a7146101b85780630e89341c146101e8578063107a274a146102155780632a55205a146102b85780632eb2c2d6146102f7575b600080fd5b34801561019157600080fd5b506101a56101a0366004612004565b61058e565b6040519081526020015b60405180910390f35b3480156101c457600080fd5b506101d86101d3366004612044565b6105b6565b60405190151581526020016101af565b3480156101f457600080fd5b50610208610203366004612068565b6105c1565b6040516101af91906120d1565b34801561022157600080fd5b50610288610230366004612068565b600090815260096020908152604091829020825160808101845281546001600160a01b03168082526001830154938201849052600283015460ff16151594820185905260039092015460609091018190529093919291565b604080516001600160a01b03909516855260208501939093529015159183019190915260608201526080016101af565b3480156102c457600080fd5b506102d86102d33660046120e4565b61074b565b604080516001600160a01b0390931683526020830191909152016101af565b34801561030357600080fd5b50610317610312366004612249565b6107d0565b005b34801561032557600080fd5b5061031761083c565b34801561033a57600080fd5b506103446101f481565b6040516001600160601b0390911681526020016101af565b34801561036857600080fd5b5061037c6103773660046122f2565b610933565b6040516101af91906123ec565b34801561039557600080fd5b506103b173f51fe86498b83538e902e160f2d80c34c7d6b81681565b6040516001600160a01b0390911681526020016101af565b3480156103d557600080fd5b50610317610a07565b6103176103ec366004612068565b610a11565b3480156103fd57600080fd5b5061031761040c3660046123ff565b610e20565b34801561041d57600080fd5b506101a561042c36600461243b565b610e34565b34801561043d57600080fd5b5061037c61044c36600461247f565b610f02565b34801561045d57600080fd5b506103176111e0565b34801561047257600080fd5b506101a56111f2565b34801561048757600080fd5b506005546001600160a01b03166103b1565b3480156104a557600080fd5b506006546101a5565b3480156104ba57600080fd5b506103176104c93660046120e4565b611208565b3480156104da57600080fd5b506103176104e9366004612564565b6113b0565b3480156104fa57600080fd5b506101a56105093660046125a0565b6113bb565b34801561051a57600080fd5b50610317610529366004612068565b6114e9565b34801561053a57600080fd5b506101d86105493660046125f6565b61162b565b34801561055a57600080fd5b50610317610569366004612629565b611659565b34801561057a57600080fd5b5061031761058936600461268d565b6116b8565b6000818152602081815260408083206001600160a01b03861684529091529020545b92915050565b60006105b0826116f6565b6000818152600860205260408120805460609291906105df906126a8565b80601f016020809104026020016040519081016040528092919081815260200182805461060b906126a8565b80156106585780601f1061062d57610100808354040283529160200191610658565b820191906000526020600020905b81548152906001019060200180831161063b57829003601f168201915b5050505050905060006007805461066e906126a8565b80601f016020809104026020016040519081016040528092919081815260200182805461069a906126a8565b80156106e75780601f106106bc576101008083540402835291602001916106e7565b820191906000526020600020905b8154815290600101906020018083116106ca57829003601f168201915b5050505050905080516000036106fe575092915050565b8151156107305780826040516020016107189291906126e2565b60405160208183030381529060405292505050919050565b8061073a8561171b565b6040516020016107189291906126e2565b600082815260046020526040812080548291906001600160a01b03811690600160a01b90046001600160601b03168161079f5750506003546001600160a01b03811690600160a01b90046001600160601b03165b60006127106107b76001600160601b03841689612727565b6107c1919061273e565b92989297509195505050505050565b336001600160a01b03861681148015906107f157506107ef868261162b565b155b156108275760405163711bec9160e11b81526001600160a01b038083166004830152871660248201526044015b60405180910390fd5b61083486868686866117ad565b505050505050565b610844611814565b47806108875760405162461bcd60e51b81526020600482015260126024820152714e6f2045544820746f20776974686472617760701b604482015260640161081e565b600061089b6005546001600160a01b031690565b6001600160a01b03168260405160006040518083038185875af1925050503d80600081146108e5576040519150601f19603f3d011682016040523d82523d6000602084013e6108ea565b606091505b505090508061092f5760405162461bcd60e51b815260206004820152601160248201527015da5d1a191c985dd85b0819985a5b1959607a1b604482015260640161081e565b5050565b606081518351146109645781518351604051635b05999160e01b81526004810192909252602482015260440161081e565b600083516001600160401b0381111561097f5761097f612106565b6040519080825280602002602001820160405280156109a8578160200160208202803683370190505b50905060005b84518110156109ff576020808202860101516109d29060208084028701015161058e565b8282815181106109e4576109e4612760565b60209081029190910101526109f881612776565b90506109ae565b509392505050565b610a0f611814565b565b600081815260096020908152604091829020825160808101845281546001600160a01b03168152600182015492810192909252600281015460ff16151592820183905260030154606082015290610aaa5760405162461bcd60e51b815260206004820152601a60248201527f4e4654206973206e6f74206c697374656420666f722073616c65000000000000604482015260640161081e565b8060200151341015610af55760405162461bcd60e51b8152602060048201526014602482015273125b9cdd59999a58da595b9d081c185e5b595b9d60621b604482015260640161081e565b80516001600160a01b03163303610b4e5760405162461bcd60e51b815260206004820152601760248201527f43616e6e6f742062757920796f7572206f776e204e4654000000000000000000604482015260640161081e565b60006127106101f46001600160601b03168360200151610b6e9190612727565b610b78919061273e565b90506000818360200151610b8c919061278f565b9050610baf83600001513386600160405180602001604052806000815250611841565b60405160009073f51fe86498b83538e902e160f2d80c34c7d6b8169084908381818185875af1925050503d8060008114610c05576040519150601f19603f3d011682016040523d82523d6000602084013e610c0a565b606091505b5050905080610c5b5760405162461bcd60e51b815260206004820152601760248201527f526f79616c7479207472616e73666572206661696c6564000000000000000000604482015260640161081e565b83516040516000916001600160a01b03169084908381818185875af1925050503d8060008114610ca7576040519150601f19603f3d011682016040523d82523d6000602084013e610cac565b606091505b5050905080610cf55760405162461bcd60e51b815260206004820152601560248201527414d95b1b195c881c185e5b595b9d0819985a5b1959605a1b604482015260640161081e565b8460200151341115610d995760208501516000903390610d15903461278f565b604051600081818185875af1925050503d8060008114610d51576040519150601f19603f3d011682016040523d82523d6000602084013e610d56565b606091505b5050905080610d975760405162461bcd60e51b815260206004820152600d60248201526c1499599d5b990819985a5b1959609a1b604482015260640161081e565b505b600086815260096020908152604080832080546001600160a01b03191681556001810184905560028101805460ff19169055600301929092558651878201519251928352889233926001600160a01b03909216917ff6ccc0cf89c21c54724ea6ef2ec01da8fe33a1cebe06607e160fd78483eba302910160405180910390a4505050505050565b610e28611814565b600761092f82826127e8565b600080835111610e565760405162461bcd60e51b815260040161081e906128a7565b60008211610e765760405162461bcd60e51b815260040161081e906128de565b60068054906000610e8683612776565b919050555060006006549050610ead338285604051806020016040528060008152506118cf565b610eb7818561192c565b80336001600160a01b03167f7f9dd5d8fa69e733db2277a568b65a9651a3042da18fb2b5ea1966d3891cbfda8686604051610ef3929190612915565b60405180910390a39392505050565b6060610f0c611814565b6001600160a01b038416610f625760405162461bcd60e51b815260206004820152601b60248201527f43616e6e6f74206d696e7420746f207a65726f20616464726573730000000000604482015260640161081e565b8151835114610fac5760405162461bcd60e51b8152602060048201526016602482015275082e4e4c2f2e640d8cadccee8d040dad2e6dac2e8c6d60531b604482015260640161081e565b6000835111610ff65760405162461bcd60e51b81526020600482015260166024820152754172726179732063616e6e6f7420626520656d70747960501b604482015260640161081e565b600083516001600160401b0381111561101157611011612106565b60405190808252806020026020018201604052801561103a578160200160208202803683370190505b50905060005b84518110156111d757600085828151811061105d5761105d612760565b602002602001015151116110835760405162461bcd60e51b815260040161081e906128a7565b600084828151811061109757611097612760565b6020026020010151116110bc5760405162461bcd60e51b815260040161081e906128de565b600680549060006110cc83612776565b91905055506000600654905061110c87828785815181106110ef576110ef612760565b6020026020010151604051806020016040528060008152506118cf565b61112f8187848151811061112257611122612760565b602002602001015161192c565b8083838151811061114257611142612760565b60200260200101818152505080876001600160a01b03167f7f9dd5d8fa69e733db2277a568b65a9651a3042da18fb2b5ea1966d3891cbfda88858151811061118c5761118c612760565b60200260200101518886815181106111a6576111a6612760565b60200260200101516040516111bc929190612915565b60405180910390a350806111cf81612776565b915050611040565b50949350505050565b6111e8611814565b610a0f6000611949565b600060065460016112039190612937565b905090565b6000611214338461058e565b1161125a5760405162461bcd60e51b8152602060048201526016602482015275165bdd48191bdb89dd081bdddb881d1a1a5cc813919560521b604482015260640161081e565b600081116112aa5760405162461bcd60e51b815260206004820152601c60248201527f5072696365206d7573742062652067726561746572207468616e203000000000604482015260640161081e565b60008281526009602052604090206002015460ff16156113045760405162461bcd60e51b8152602060048201526015602482015274139195081a5cc8185b1c9958591e481b1a5cdd1959605a1b604482015260640161081e565b604080516080810182523380825260208083018581526001848601818152426060870190815260008a815260098652889020965187546001600160a01b0319166001600160a01b039091161787559251918601919091555160028501805460ff19169115159190911790555160039093019290925591518381528492917fbbf44e68296791df5535457da734bf1017c4b233a740af6d7a89b9f1af4ecb42910160405180910390a35050565b61092f33838361199b565b60006113c5611814565b6001600160a01b03841661141b5760405162461bcd60e51b815260206004820152601b60248201527f43616e6e6f74206d696e7420746f207a65726f20616464726573730000000000604482015260640161081e565b600083511161143c5760405162461bcd60e51b815260040161081e906128a7565b6000821161145c5760405162461bcd60e51b815260040161081e906128de565b6006805490600061146c83612776565b919050555060006006549050611493858285604051806020016040528060008152506118cf565b61149d818561192c565b80856001600160a01b03167f7f9dd5d8fa69e733db2277a568b65a9651a3042da18fb2b5ea1966d3891cbfda86866040516114d9929190612915565b60405180910390a3949350505050565b600081815260096020908152604091829020825160808101845281546001600160a01b03168152600182015492810192909252600281015460ff161515928201839052600301546060820152906115765760405162461bcd60e51b8152602060048201526011602482015270139195081a5cc81b9bdd081b1a5cdd1959607a1b604482015260640161081e565b80516001600160a01b031633146115c85760405162461bcd60e51b815260206004820152601660248201527513db9b1e481cd95b1b195c8818d85b8819195b1a5cdd60521b604482015260640161081e565b60008281526009602052604080822080546001600160a01b03191681556001810183905560028101805460ff1916905560030182905551839133917f62d66f5d387e08db35989a64daa510d22a7232d53039c6539e9bf747845f83e79190a35050565b6001600160a01b03918216600090815260016020908152604080832093909416825291909152205460ff1690565b336001600160a01b038616811480159061167a5750611678868261162b565b155b156116ab5760405163711bec9160e11b81526001600160a01b0380831660048301528716602482015260440161081e565b6108348686868686611841565b6116c0611814565b6001600160a01b0381166116ea57604051631e4fbdf760e01b81526000600482015260240161081e565b6116f381611949565b50565b60006001600160e01b0319821663152a902d60e11b14806105b057506105b082611a31565b6060600061172883611a81565b60010190506000816001600160401b0381111561174757611747612106565b6040519080825280601f01601f191660200182016040528015611771576020820181803683370190505b5090508181016020015b600019016f181899199a1a9b1b9c1cb0b131b232b360811b600a86061a8153600a850494508461177b57509392505050565b6001600160a01b0384166117d757604051632bfa23e760e11b81526000600482015260240161081e565b6001600160a01b03851661180057604051626a0d4560e21b81526000600482015260240161081e565b61180d8585858585611b59565b5050505050565b6005546001600160a01b03163314610a0f5760405163118cdaa760e01b815233600482015260240161081e565b6001600160a01b03841661186b57604051632bfa23e760e11b81526000600482015260240161081e565b6001600160a01b03851661189457604051626a0d4560e21b81526000600482015260240161081e565b604080516001808252602082018690528183019081526060820185905260808201909252906118c68787848487611b59565b50505050505050565b6001600160a01b0384166118f957604051632bfa23e760e11b81526000600482015260240161081e565b60408051600180825260208201869052818301908152606082018590526080820190925290610834600087848487611b59565b600082815260086020526040902061194482826127e8565b505050565b600580546001600160a01b038381166001600160a01b0319831681179093556040519116919082907f8be0079c531659141344cd1fd0a4f28419497f9722a3daafe3b4186f6b6457e090600090a35050565b6001600160a01b0382166119c45760405162ced3e160e81b81526000600482015260240161081e565b6001600160a01b03838116600081815260016020908152604080832094871680845294825291829020805460ff191686151590811790915591519182527f17307eab39ab6107e8899845ad3d59bd9653f200f220920489ca2b5937696c31910160405180910390a3505050565b60006001600160e01b03198216636cdb3d1360e11b1480611a6257506001600160e01b031982166303a24d0760e21b145b806105b057506301ffc9a760e01b6001600160e01b03198316146105b0565b60008072184f03e93ff9f4daa797ed6e38ed64bf6a1f0160401b8310611ac05772184f03e93ff9f4daa797ed6e38ed64bf6a1f0160401b830492506040015b6d04ee2d6d415b85acef81000000008310611aec576d04ee2d6d415b85acef8100000000830492506020015b662386f26fc100008310611b0a57662386f26fc10000830492506010015b6305f5e1008310611b22576305f5e100830492506008015b6127108310611b3657612710830492506004015b60648310611b48576064830492506002015b600a83106105b05760010192915050565b611b6585858585611bac565b6001600160a01b0384161561180d5782513390600103611b9e5760208481015190840151611b97838989858589611bbe565b5050610834565b610834818787878787611ce2565b611bb884848484611dcb565b50505050565b6001600160a01b0384163b156108345760405163f23a6e6160e01b81526001600160a01b0385169063f23a6e6190611c02908990899088908890889060040161294a565b6020604051808303816000875af1925050508015611c3d575060408051601f3d908101601f19168201909252611c3a9181019061298f565b60015b611ca6573d808015611c6b576040519150601f19603f3d011682016040523d82523d6000602084013e611c70565b606091505b508051600003611c9e57604051632bfa23e760e11b81526001600160a01b038616600482015260240161081e565b805160208201fd5b6001600160e01b0319811663f23a6e6160e01b146118c657604051632bfa23e760e11b81526001600160a01b038616600482015260240161081e565b6001600160a01b0384163b156108345760405163bc197c8160e01b81526001600160a01b0385169063bc197c8190611d2690899089908890889088906004016129ac565b6020604051808303816000875af1925050508015611d61575060408051601f3d908101601f19168201909252611d5e9181019061298f565b60015b611d8f573d808015611c6b576040519150601f19603f3d011682016040523d82523d6000602084013e611c70565b6001600160e01b0319811663bc197c8160e01b146118c657604051632bfa23e760e11b81526001600160a01b038616600482015260240161081e565b8051825114611dfa5781518151604051635b05999160e01b81526004810192909252602482015260440161081e565b3360005b8351811015611f09576020818102858101820151908501909101516001600160a01b03881615611eb1576000828152602081815260408083206001600160a01b038c16845290915290205481811015611e8a576040516303dee4c560e01b81526001600160a01b038a16600482015260248101829052604481018390526064810184905260840161081e565b6000838152602081815260408083206001600160a01b038d16845290915290209082900390555b6001600160a01b03871615611ef6576000828152602081815260408083206001600160a01b038b16845290915281208054839290611ef0908490612937565b90915550505b505080611f0290612776565b9050611dfe565b508251600103611f8a5760208301516000906020840151909150856001600160a01b0316876001600160a01b0316846001600160a01b03167fc3d58168c5ae7397731d063d5bbf3d657854427343f4c083240f7aacaa2d0f628585604051611f7b929190918252602082015260400190565b60405180910390a4505061180d565b836001600160a01b0316856001600160a01b0316826001600160a01b03167f4a39dc06d4c0dbc64b70af90fd698a233a518aa5d07e595d983b8c0526c8f7fb8686604051611fd9929190612a0a565b60405180910390a45050505050565b80356001600160a01b0381168114611fff57600080fd5b919050565b6000806040838503121561201757600080fd5b61202083611fe8565b946020939093013593505050565b6001600160e01b0319811681146116f357600080fd5b60006020828403121561205657600080fd5b81356120618161202e565b9392505050565b60006020828403121561207a57600080fd5b5035919050565b60005b8381101561209c578181015183820152602001612084565b50506000910152565b600081518084526120bd816020860160208601612081565b601f01601f19169290920160200192915050565b60208152600061206160208301846120a5565b600080604083850312156120f757600080fd5b50508035926020909101359150565b634e487b7160e01b600052604160045260246000fd5b604051601f8201601f191681016001600160401b038111828210171561214457612144612106565b604052919050565b60006001600160401b0382111561216557612165612106565b5060051b60200190565b600082601f83011261218057600080fd5b813560206121956121908361214c565b61211c565b82815260059290921b840181019181810190868411156121b457600080fd5b8286015b848110156121cf57803583529183019183016121b8565b509695505050505050565b600082601f8301126121eb57600080fd5b81356001600160401b0381111561220457612204612106565b612217601f8201601f191660200161211c565b81815284602083860101111561222c57600080fd5b816020850160208301376000918101602001919091529392505050565b600080600080600060a0868803121561226157600080fd5b61226a86611fe8565b945061227860208701611fe8565b935060408601356001600160401b038082111561229457600080fd5b6122a089838a0161216f565b945060608801359150808211156122b657600080fd5b6122c289838a0161216f565b935060808801359150808211156122d857600080fd5b506122e5888289016121da565b9150509295509295909350565b6000806040838503121561230557600080fd5b82356001600160401b038082111561231c57600080fd5b818501915085601f83011261233057600080fd5b813560206123406121908361214c565b82815260059290921b8401810191818101908984111561235f57600080fd5b948201945b838610156123845761237586611fe8565b82529482019490820190612364565b9650508601359250508082111561239a57600080fd5b506123a78582860161216f565b9150509250929050565b600081518084526020808501945080840160005b838110156123e1578151875295820195908201906001016123c5565b509495945050505050565b60208152600061206160208301846123b1565b60006020828403121561241157600080fd5b81356001600160401b0381111561242757600080fd5b612433848285016121da565b949350505050565b6000806040838503121561244e57600080fd5b82356001600160401b0381111561246457600080fd5b612470858286016121da565b95602094909401359450505050565b60008060006060848603121561249457600080fd5b61249d84611fe8565b92506020808501356001600160401b03808211156124ba57600080fd5b818701915087601f8301126124ce57600080fd5b81356124dc6121908261214c565b81815260059190911b8301840190848101908a8311156124fb57600080fd5b8585015b83811015612533578035858111156125175760008081fd5b6125258d89838a01016121da565b8452509186019186016124ff565b5096505050604087013592508083111561254c57600080fd5b505061255a8682870161216f565b9150509250925092565b6000806040838503121561257757600080fd5b61258083611fe8565b91506020830135801515811461259557600080fd5b809150509250929050565b6000806000606084860312156125b557600080fd5b6125be84611fe8565b925060208401356001600160401b038111156125d957600080fd5b6125e5868287016121da565b925050604084013590509250925092565b6000806040838503121561260957600080fd5b61261283611fe8565b915061262060208401611fe8565b90509250929050565b600080600080600060a0868803121561264157600080fd5b61264a86611fe8565b945061265860208701611fe8565b9350604086013592506060860135915060808601356001600160401b0381111561268157600080fd5b6122e5888289016121da565b60006020828403121561269f57600080fd5b61206182611fe8565b600181811c908216806126bc57607f821691505b6020821081036126dc57634e487b7160e01b600052602260045260246000fd5b50919050565b600083516126f4818460208801612081565b835190830190612708818360208801612081565b01949350505050565b634e487b7160e01b600052601160045260246000fd5b80820281158282048414176105b0576105b0612711565b60008261275b57634e487b7160e01b600052601260045260246000fd5b500490565b634e487b7160e01b600052603260045260246000fd5b60006001820161278857612788612711565b5060010190565b818103818111156105b0576105b0612711565b601f82111561194457600081815260208120601f850160051c810160208610156127c95750805b601f850160051c820191505b81811015610834578281556001016127d5565b81516001600160401b0381111561280157612801612106565b6128158161280f84546126a8565b846127a2565b602080601f83116001811461284a57600084156128325750858301515b600019600386901b1c1916600185901b178555610834565b600085815260208120601f198616915b828110156128795788860151825594840194600190910190840161285a565b50858210156128975787850151600019600388901b60f8161c191681555b5050505050600190811b01905550565b6020808252601c908201527f4d65746164617461205552492063616e6e6f7420626520656d70747900000000604082015260600190565b6020808252601d908201527f416d6f756e74206d7573742062652067726561746572207468616e2030000000604082015260600190565b60408152600061292860408301856120a5565b90508260208301529392505050565b808201808211156105b0576105b0612711565b6001600160a01b03868116825285166020820152604081018490526060810183905260a060808201819052600090612984908301846120a5565b979650505050505050565b6000602082840312156129a157600080fd5b81516120618161202e565b6001600160a01b0386811682528516602082015260a0604082018190526000906129d8908301866123b1565b82810360608401526129ea81866123b1565b905082810360808401526129fe81856120a5565b98975050505050505050565b604081526000612a1d60408301856123b1565b8281036020840152612a2f81856123b1565b9594505050505056fea2646970667358221220dcd035c718a8de3a764d6e896df1ce50518dcd8397dbd8bb598cd2851040434064736f6c63430008140033",
  "linkReferences": {},
  "deployedLinkReferences": {}
}